:020000040800F2
:10000000B8050020ED010008272800085522000847
:100010002528000825030008253C000800000000F2
:10002000000000000000000000000000912B00080C
:10003000270300080000000029280008932B00086F
:10004000070200080702000807020008070200086C
:10005000070200080702000807020008070200085C
:10006000070200080702000807020008070200084C
:10007000070200080702000807020008070200083C
:10008000070200080000000007020008070200083D
:10009000070200080702000807020008070200081C
:1000A000070200080702000807020008070200080C
:1000B00007020008070200080702000807020008FC
:1000C00007020008070200080702000807020008EC
:1000D0000702000807020008193C00080702000890
:1000E00007020008070200080702000807020008CC
:1000F00007020008070200080702000800000000CD
:1001000000000000070200080000000007020008CD
:1001100007020008000000000702000807020008AC
:10012000070200080702000807020008070200088B
:10013000070200080000000000000000070200089D
:10014000070200080702000800000000000000008D
:10015000000000000000000000000000000000009F
:10016000000000000000000000000000070200087E
:10017000070200080000000000000000000000006E
:10018000000000000702000800000000000000005E
:10019000000000000000000000000000000000005F
:1001A000000000000000000007020008070200082D
:1001B000070200080702000807020008000000000C
:1001C000000000000702000800000000000000001E
:1001D0000702000807020008DFF80CD000F090F8D2
:1001E0000048004701410008B80500200648804744
:1001F00006480047FEE7FEE7FEE7FEE7FEE7FEE70C
:10020000FEE7FEE7FEE7FEE70D2C0008D901000837
:100210002DE9F05F0546002092469B46884606463B
:10022000814640241BE0284641464746224600F0CE
:1002300057F853465A46C01A914110D311461846F2
:10024000224600F03EF82D1A67EB01084F46224681
:100250000120002100F035F817EB00094E41201E67
:10026000A4F10104DFDC484631462A464346BDE896
:10027000F09FD2B201E000F8012B491EFBD270477B
:100280000022F6E710B513460A4604461946FFF762
:10029000F0FF204610BD30B50B460146002020225D
:1002A000012409E021FA02F59D4205D303FA02F583
:1002B000491B04FA02F52844151EA2F10102F1DCE3
:1002C00030BD202A04DB203A00FA02F100207047FA
:1002D0009140C2F1200320FA03F319439040704784
:1002E000202A04DB203A21FA02F00021704721FA8B
:1002F00002F3D040C2F120029140084319467047F2
:10030000064C074D06E0E06840F0010394E8070062
:1003100098471034AC42F6D3FFF762FF0C54000844
:100320002C540008FEE77047002240F6B83306E080
:100330000021491C89B29942FBD3521C92B28242DD
:10034000F6D3704770470000F0B49BB0002390F8DC
:100350005820012A19D0012280F858200268394C0F
:100360000025B2F1A04F14D00095DDF800C0BCF11B
:10037000000F10D0DDF800C0DCF808C0CCF3800C12
:100380009268C2F3800282B112E01BB00220F0BC7E
:1003900070470094E9E7C16D41F02001C16580F824
:1003A00058501BB00120F0BC7047BCF1000F0AD0C0
:1003B000C16D41F02001C165012380F858501BB088
:1003C0001846F0BC7047204A0E684FF0A04C16B398
:1003D000966890F8387026F4604646EA47364F68CB
:1003E0003E439660DCF808C00CF0010CA46804F0F1
:1003F00001045CEA040CE0D1D1F800C089684CEA41
:100400000101D2F808C02CF01F0C2CF4706C41EAEA
:100410000C019160D1E7916821F460419160DCF8B2
:10042000081001F00101D4F808C00CF0010C51EAE9
:100430000C01C2D1916821F01F0121F4706191601B
:10044000BBE7000000010050000300502DE9F80751
:1004500000239C46CDF800C0FE4E90F85820012A9B
:1004600012D0012480F8584002689568C5F38005D1
:1004700075B1C16D41F02001C165012380F858C0FC
:100480001846BDE8F8077047BDE8F8070220704736
:100490008D880F6805F4407802EB9812D2F830800E
:1004A00005F01F054FF01F0909FA05F9C7F3846726
:1004B00028EA090807FA05F548EA05051563026800
:1004C0009568C5F380059768C7F3C0072F434FF0C1
:1004D000070540F0FF80D1F80880B8F1004F53D0F5
:1004E0000F6807F0007902EBD952D2F81490C7F3E5
:1004F000045705FA07FA29EA0A0908FA07F749EA48
:10050000070757610268576927F00047576102687B
:100510004F69D2F80C80C8F3C1084FEA480807FABF
:1005200008F80F69042F4CD0D1F8009002EB870235
:10053000176EDFF824A309F0F84907EA0A0749EA29
:10054000080847EA080747F0004717660268D1F82D
:1005500010808F6902EB8802D2F8608028F08078E2
:1005600048EA070717660F7F0268D1F81080012F4D
:1005700024D0002702EB8802D2F8608028F00078AF
:1005800048EA07071766A5E00F684FF0000807F074
:10059000007902EBD952D2F81490C7F3045705FA48
:1005A00007FA29EA0A0908FA07F749EA070757612B
:1005B0000268576947F000475761A8E74FF0007796
:1005C000D8E702F160073F6800277F037F0B7CD0EC
:1005D00002F160073F6807F0F84797FAA7F7B7FA04
:1005E00087F80F68C7F31209B9F1000F6ED097FAB8
:1005F000A7F7B7FA87F7B84503D1176E27F000477A
:1006000017660268121D02F160073F6800277F032A
:100610007F0B71D002F160073F6807F0F84797FA47
:10062000A7F7B7FA87F80F68C7F31209B9F1000FF7
:100630006AD097FAA7F7B7FA87F7B84503D1176ECC
:1006400027F0004717660268083202F160073F682A
:1006500000277F037F0B5AD002F160073F6807F045
:10066000F84797FAA7F7B7FA87F80F68C7F31209A0
:10067000B9F1000F53D097FAA7F7B7FA87F7B84543
:1006800003D1176E27F00047176602680C3202F19B
:1006900060073F6800277F037F0B43D002F16007AC
:1006A0003F6807F0F84797FAA7F7B7FA87F80F6897
:1006B000C7F31209B9F1000F3CD097FAA7F7B7FAC0
:1006C00087F7B84506D1176E01E009E010E027F082
:1006D000004717660268976807F001076FB3D1E01B
:1006E00002F160073F6807F0F8474FEA976878E73C
:1006F000C7F384677FE7FFE702F160073F6807F011
:10070000F8474FEA97688EE7C7F3846795E702F1E9
:1007100060073F6807F0F8474FEA9768A5E7C7F317
:100720008467ACE702F160073F6807F0F8474FEADB
:100730009768BCE7C7F38467C3E791F80C800F683C
:10074000D2F8B090C7F3120A29EA0A09DFF80CA11F
:1007500008F018082AFA08F808EA070749EA07071C
:10076000C2F8B070CA68B2427AD10A68076812EA61
:100770000A061AD092FAA2F6B6FA86F6761C06F0A7
:100780001F06092E32D8C2F31206002E10D092FA9C
:10079000A2F6B6FA86F606F1010606F01F0604FA7E
:1007A00006F608D1C2F3846409E0C2F38466E5E783
:1007B000C2F38466EFE792FAA2F4B4FA84F404F187
:1007C000010404F01F0446EA846402D1C2F3846287
:1007D00003E092FAA2F2B2FA82F202F1010202F00E
:1007E0001F0202EB420244EA025432E0C2F3120654
:1007F000002E0DD092FAA2F6B6FA86F606F10106A0
:1008000006F01F0604FA06F605D1C2F3846406E07A
:10081000C2F38466F2E792FAA2F4B4FA84F404F123
:10082000010404F01F0446EA846402D1C2F3846226
:1008300003E092FAA2F2B2FA82F202F1010202F0AD
:100840001F02A2F10A0202EB420244EA025242F003
:10085000007406E000007F4000F0FF03FFFF070088
:1008600010E08E6804F0007207EBD2525769C4F3AF
:10087000045405FA04F527EA050506FA04F445EAE6
:10088000040454610A682F490A423FF4F7AD2E4C24
:10089000A16801F0E07102F1705515F55F0502D015
:1008A0002A4DAA4202D111F4000F1ED0284D02F1A8
:1008B000605616F52E0602D111F0807F35D002F178
:1008C000505616F5F8067FF4D9AD11F4800F7FF479
:1008D000D5AD0268AA423FF4D1AD41F48001A268CF
:1008E00022F0E0721143A160C8E50268B2F1A04FA6
:1008F0007FF4C4AD41F40001A26822F0E07211431C
:10090000A1601449144A0968B1FBF2F101EB4101FD
:1009100089000091009900293FF4B0AD0099491E6B
:10092000009100990029F9D1A8E50268AA423FF494
:10093000A5AD41F08071A26822F0E0721143A16080
:100940009CE5000000000880000300501000C090EB
:100950000001005014000020400D0300F8B50446CB
:10096000002500260096002C02D0E06D10B107E0B3
:100970000120F8BD204600F0F7F8266684F858609C
:1009800020688168C1F3407129B1816821F03F017D
:1009900021F02041816020688168C1F30071A9B90C
:1009A000816821F03F0121F0004141F080518160D8
:1009B000684869490068B0FBF1F00090009828B1E0
:1009C0000098401E009000980028F9D120688168A6
:1009D000C1F3007141B9E16D41F01001E165216E93
:1009E00041F00101216601258168C1F38001E26DBA
:1009F00012F0100F00D131B1E06D40F01000E06551
:100A000001252846F8BDE16D21F4807141F0020115
:100A1000E165806800F0010088B94FF0A04080686F
:100A200000F001004D49896801F00101084306D139
:100A300060684B498A6822F47C1210438860E16840
:100A4000E06B627F0843A16841EA4231084394F8B1
:100A5000241040EA0140012903D1218D491E40EABA
:100A60004140E16A21B101F47871226B08431043DF
:100A70002168CA683B4B1A401043C860206801696E
:100A8000626B21F040611143016120688168C1F30C
:100A900080018268C2F3C002114332D1217F94F8F1
:100AA0003820890341EA4201C26822F0020222F49E
:100AB00080421143C160206970B12068016941F42E
:100AC000803101612068D0F8C01022696FF30D01F8
:100AD0001143C0F8C0100BE02068016921F4803197
:100AE00001612068D0F8C0106FF30D01C0F8C0108C
:100AF00094F84000012813D02068016921F0010119
:100B00000161606901281CD02068016B21F00F0190
:100B10000163E06D20F0020040F00100E06570E745
:100B2000A16C606C226D0843E16C114340EA010244
:100B3000206801696FF38A01114341F001010161ED
:100B4000DFE72068016B226A21F00F01521E11437A
:100B50000163DEE714000020400D03000001005097
:100B6000000300500740F0FFF0B587B004461421A1
:100B70006846FFF785FB214B266800241A68032589
:100B80001F482049521CB6F1A04F06D01E4FBE424E
:100B900031D11A60012A16D01DE01A60012A07D14E
:100BA000CA6C42F40052CA64CA6C02F40052059244
:100BB000CA6C42F00202CA64C96C01F002010591DC
:100BC0004FF4805111E0CA6C42F40052CA64CA6CFE
:100BD00002F400520592CA6C42F00202CA64C96C67
:100BE00001F0020105914FF40041CDE90015029496
:100BF000694600F069F807B0F0BD00001000002061
:100C000000040048001002400001005010B500240C
:100C100090F8251000230122022907D00421C16386
:100C200080F8252080F82430012437E00168D1F8CD
:100C300000C02CF00E0CC1F800C00168D1F800C053
:100C40002CF0010CC1F800C0816CD1F800C02CF46C
:100C5000807CC1F800C090F84410D0F840C001F08A
:100C60001F0102FA01F1CCF80410D0F84CC0016D5C
:100C7000CCF80410416D51B1D1F800C02CF4807C47
:100C8000C1F800C0D0F858C0C16DCCF8041080F88D
:100C9000252080F82430816B01B18847204610BDA3
:100CA00070B5044600F036F90546B4F1FF3F02D0B6
:100CB00004484068044400F02DF9401BA042FAD3D8
:100CC00070BD0000180000202DE9F84F00220B68CD
:100CD000002B7CD00324874E874F0F250123D1F8AA
:100CE00000C003FA02F80CEA0803002B70D0D1F818
:100CF00004C0BCF1010F08D0BCF1020F05D0BCF15B
:100D0000110F02D0BCF1120F1DD1D0F808904FEA9C
:100D1000420C04FA0CFA29EA0A09D1F80CA00AFAE2
:100D20000CFC4CEA090CC0F808C0D0F804C02CEA4E
:100D3000080C91F80480C8F3001808FA02F848EA91
:100D40000C0CC0F804C0D0F80C804FEA420C04FA36
:100D50000CFA28EA0A08D1F8089009FA0CF949EACD
:100D60000808C0F80C80D1F80480B8F1020F02D056
:100D7000B8F1120F15D14FEAD20800EB8808D8F865
:100D800020B04FEA42794FEAD96905FA09FE2BEA09
:100D90000E0BD1F810E00EFA09F949EA0B09C8F870
:100DA0002090D0F8008028EA0A0891F8049009F011
:100DB000030909FA0CFC4CEA080CC0F800C0D1F891
:100DC00004C01CF0805F7CD0D6F860C001E07DE0FC
:100DD00077E04CF0010CC6F860C0D6F860C00CF0AB
:100DE000010CCDF800C022F0030C0CF1804909F58C
:100DF0008039D9F808C04FEA82784FEA187805FAA6
:100E000008FA2CEA0A0AB0F1904F64D0A0F1904C95
:100E1000BCF5806C5CD0A0F1904CBCF5006C5DD052
:100E2000A0F1904CBCF5406C5BD0A0F1904CBCF5AF
:100E3000805C59D0A0F1904CBCF5A05C57D04FF02D
:100E4000060C0CFA08FC4CEA0A0CC9F808C0D7F8E2
:100E500000C02CEA030CD1F8048018F4803F01D0C4
:100E60004CEA030CC7F800C0DFF89080D8F800C047
:100E70002CEA030CD1F8049019F4003F01D04CEA9D
:100E8000030CC8F800C0DFF87880D8F800C02CEA5E
:100E9000030CD1F8049019F4801F01D04CEA030C24
:100EA000C8F800C0DFF85C80D8F800C02CEA030C5A
:100EB000D1F8049019F4001F01D04CEA030CC8F8D3
:100EC00000C0521C0B68D3407FF408AFBDE8F88F18
:100ED0004FF0010CB5E74FF0000CB2E74FF0020CF9
:100EE000AFE74FF0030CACE74FF0040CA9E74FF06D
:100EF000050CA6E700100240000401400404014074
:100F0000080401400C040140002A01D081617047AF
:100F10008162704701488068704700001800002017
:100F200002488168426811448160704718000020BF
:100F300010B50024032000F08FF8002000F008F81E
:100F400008B1012401E000F029F8204610BD00009E
:100F500070B5054600240F4E7068002817D04FF476
:100F60007A71B1FBF0F00C490968B1FBF0F000F0C8
:100F700059FE08B101240BE0102D06D200222946AB
:100F8000501E00F035F8356002E0012400E0012435
:100F9000204670BD18000020140000200B4808B542
:100FA000016E41F001010166016E01F00101009145
:100FB000816D41F080518165806D00F0805000901E
:100FC0000348816841F48041816008BD00100240FF
:100FD0000070004000280ADB00F01F01012202FA25
:100FE00001F14009800000F1E020C0F800117047D5
:100FF00010B4184B1B68C3F30223C3F1070CBCF1F8
:10100000040F01D94FF0040C1C1D072C01D2002342
:1010100000E0DB1E012404FA0CFCACF1010C0CEA2C
:101020000101994004FA03F35B1E1A4011430028A2
:1010300006DB00F1E020090180F8001410BC7047C5
:1010400000F00F0000F1E020090180F8141D10BC31
:10105000704700000CED00E000F00700064A116840
:101060004FF6FF03194041EA002040F0FD7040F0C8
:1010700080601060704700000CED00E033493222C0
:10108000334B09684A43334900280AD0B0F5007F42
:1010900031D0086820F4C06040F48060086000200F
:1010A0007047086800F4C060B0F5806F06D0D1F8D2
:1010B000800020F48070C1F88000F0E7D1F8800053
:1010C00020F48070C1F88000086820F4C06040F40B
:1010D00000700860B2FBF3F0401C00E0401E4A695B
:1010E00012F4806F01D00028F8D1486910F4806FA5
:1010F000D5D003207047086800F4C060B0F5806F59
:1011000006D0D1F8800040F48070C1F88000C6E7B6
:10111000D1F8800040F48070C1F88000086820F4A5
:10112000C06040F400700860B2FBF3F0401C00E0C7
:10113000401E4A6912F4806F01D00028F8D1486936
:1011400010F4806FABD00320704700001400002023
:1011500040420F00007000402DE9F84F0446002582
:1011600000272068B04E10F4002F76D0A846B06D4E
:1011700010F0805F09D1B06D40F08050B065B06D67
:1011800000F0805000904FF00108DFF8A0A2DAF8DC
:10119000000040F48070CAF80000FFF7BBFE8146F3
:1011A000DAF8000010F4807F0CD1FFF7B3FEA0EB5B
:1011B0000900022801D9032504E0DAF8000010F440
:1011C000807FF2D025B12F46B8F1010F41D044E025
:1011D000D6F8900000F44070A0B1216C814211D08B
:1011E000D6F8900020F44070D6F8901041F4803189
:1011F000C6F89010D6F8901021F48031C6F89010FF
:10120000C6F8900010F0010F16D0FFF783FE81465C
:10121000D6F8900010F0020F0ED141F2883AFFF795
:1012200079FEA0EB0900504501D9032504E0D6F86A
:10123000900010F0020FF2D00DB12F46C4E7D6F89F
:101240009000216C20F440700843C6F89000BBE782
:1012500003E0B06D20F08050B065207810F0010FF1
:1012600007D0D6F88800616820F003000843C6F86C
:101270008800207810F0020F07D0D6F88800A16807
:1012800020F00C000843C6F88800207810F0040F06
:1012900007D0D6F88800E16820F030000843C6F88F
:1012A0008800207810F0080F07D0D6F88800216950
:1012B00020F0C0000843C6F88800207810F0200F06
:1012C00007D0D6F88800616920F440600843C6F86A
:1012D0008800207810F0400F07D0D6F88800A16968
:1012E00020F440500843C6F88800207810F0800FA2
:1012F00007D0D6F88800E16920F440400843C6F8DA
:101300008800208810F4807F07D0D6F88800216AF2
:1013100020F440300843C6F88800208810F4007F8D
:1013200007D0D6F88800616A20F440200843C6F848
:101330008800208810F4806F0FD0D6F88800A16A4A
:1013400020F440100843C6F88800A06AB0F5801F5A
:1013500003D1F06840F48010F060208810F4006F32
:101360000FD0D6F88800E16A20F440000843C6F8A0
:101370008800E06AB0F5800F03D1F06840F4801077
:10138000F060208810F4805F0FD0D6F88800216BC1
:1013900020F040700843C6F88800206BB0F1807FD1
:1013A00003D1F06840F48010F060208810F4005FF2
:1013B0000FD0D6F88800616B20F040600843C6F873
:1013C0008800606BB0F1006F03D1F06840F48010CA
:1013D000F060208810F4804F0FD0D6F88800A16B01
:1013E00020F040600843C6F88800A06BB0F1006FA1
:1013F00003D1F06840F48010F060208810F4004FB2
:101400000FD0D6F88800E16B20F040500843C6F8B2
:101410008800E06BB0F1805F03D1F06840F4803069
:10142000F0603846BDE8F88F0010024000700040C0
:101430002DE9F04704460D460027002C17D0DFF8B1
:10144000DC91D9F8000000F00F00A84212D2D9F8C0
:10145000000020F00F002843C9F80000D9F8000070
:1014600000F00F00A84205D00120BDE8F087012060
:10147000BDE8F08720786A4E10F0010F41F2883AFB
:101480005ED06068DFF89C81032806D0022822D055
:10149000306810F4806F49D021E0306810F0007F90
:1014A0000ED001F0C3F9404524D9B06810F0F00F18
:1014B00009D0207810F0020F1CD0A06818B119E0F4
:1014C0000120BDE8F087B06820F0F00040F0800017
:1014D000B06080270EE0306810F4003F23D000F0A9
:1014E000D3F8404506D9B06820F0F00040F0800005
:1014F000B0608027B068616820F003000843B060E6
:10150000FFF708FD8046B068616800F00C00B0EBA2
:10151000810F15D0FFF7FEFCA0EB0800504508D95D
:101520000320BDE8F0870120BDE8F0870120BDE879
:10153000F087B068616800F00C00B0EB810FE9D172
:10154000206810F0020F17D010F0040F03D0B0681D
:1015500040F4E060B060207810F0080F05D0B0686B
:1015600020F4605040F4E060B060B068A16820F002
:10157000F0000843B06005E0802F03D1B06820F090
:10158000F000B060D9F8000000F00F00A8421DD9AB
:10159000D9F8000020F00F002843C9F80000FFF739
:1015A000B9FC0746D9F8000000F00F00A8420DD0A2
:1015B000FFF7B0FCC01B504502D90320BDE8F087FF
:1015C000D9F8000000F00F00A842F1D1207810F007
:1015D000040F05D0B068E16820F4E0600843B06013
:1015E000207810F0080F06D0B068216920F4605010
:1015F00040EAC100B06000F047F8B1680A4AC1F3A0
:101600000311515C01F01F01C840084908600848F7
:101610000068BDE8F047FFF79BBC000000200240D7
:101620000010024000B4C404F45300081400002069
:1016300018000020014800687047000014000020D6
:1016400000B5FFF7F7FF05498968054AC1F3022194
:10165000515C01F01F01C84000BD000000100240B5
:101660000454000800B5FFF7E5FF05498968054AFD
:10167000C1F3C221515C01F01F01C84000BD000050
:1016800000100240045400081A4A9068DFF868C04D
:1016900000F00C0004280CD0906800F00C011748F2
:1016A000082905D091680C2333EA010103D00020FA
:1016B000704760467047D16801F00303D168C1F3F9
:1016C0000311491C032B0DD0BCFBF1F0D168C1F311
:1016D00006214843D168C1F34161491C4900B0FB70
:1016E000F1F07047B0FBF1F0D168C1F30621484337
:1016F000F0E70000001002400024F40000366E0104
:101700002DE9F8430446002C0ED02078FD4F10F050
:10171000010F60D0B8683D4600F00C00E96801F0A8
:1017200003010C2803D004E00120BDE8F88303295D
:101730001AD0082818D06068B0F5803F1DD0B0F5E9
:10174000A02F1FD0286820F480302860286820F45B
:1017500080202860606858B3FFF7DCFB06462868E5
:1017600010F4003F17D036E0286810F4003F32D064
:10177000606880BB0120BDE8F883286840F48030B1
:101780002860E7E7286840F480202860286840F453
:1017900080302860DEE7FFF7BDFB801B642802D99C
:1017A0000320BDE8F883286810F4003FF3D012E06E
:1017B000FFF7B0FB0646286810F4003F0BD0FFF798
:1017C000A9FB801B642802D90320BDE8F8832868A0
:1017D00010F4003FF3D1207810F0020F5ED0B8680B
:1017E0003D4600F00C00E96801F003010C2801D12E
:1017F00002290FD004280DD0E068B8B3286840F45F
:1018000080702860FFF786FB0646286810F4806F1A
:1018100018D023E0286810F4806F01D0E06870B120
:101820006868217C20F0FE4040EA01606860B648AC
:101830000068FFF78DFB88B30120BDE8F883012025
:10184000BDE8F883FFF766FB801B022802D903205E
:10185000BDE8F883286810F4806FF3D06868217CB5
:1018600020F0FE4040EA0160686017E0FFE728686A
:1018700020F480702860FFF74DFB0646286810F4BE
:10188000806F0BD0FFF746FB801B022802D9032094
:10189000BDE8F883286810F4806FF3D1207810F049
:1018A000080F3AD06069E0B1D7F894003D4640F0A7
:1018B0000100C7F89400FFF72DFB0646D5F8940009
:1018C00010F0020F29D1FFF725FB801B022802D957
:1018D0000320BDE8F883D5F8940010F0020FF2D091
:1018E0001BE0D7F894003D4620F00100C7F89400B3
:1018F000FFF710FB0646D5F8940010F0020F0CD04D
:10190000FFF708FB801B022802D90320BDE8F883FB
:10191000D5F8940010F0020FF2D1207810F0040FE7
:101920007BD04FF00008B86D10F0805F09D1B86D22
:1019300040F08050B865B86D00F0805000904FF0D6
:101940000108724D286810F4807F16D1286840F491
:1019500080702860FFF7DEFA0646286810F4807F62
:101960000BD1FFF7D7FA801B022802D90320BDE86C
:10197000F883286810F4807FF3D0A06801281AD07B
:1019800005281FD0D7F8900020F00100C7F890007C
:10199000D7F8900020F00400C7F89000A06841F24A
:1019A000883650B3FFF7B6FA0546D7F8900010F026
:1019B000020F14D037E0D7F8900040F00100C7F8CC
:1019C0009000EBE7D7F8900040F00400C7F89000D3
:1019D000D7F8900040F00100C7F89000DEE7FFF76D
:1019E00099FA401BB04202D90320BDE8F883D7F82A
:1019F000900010F0020FF2D015E0FFF78BFA0546C9
:101A0000D7F8900010F0020F0DD0FFF783FA401BBB
:101A1000B04203D90320BDE8F8830BE0D7F890006B
:101A200010F0020FF1D1B8F1010F03D1B86D20F021
:101A30008050B865207810F0200F3AD0A069E0B14E
:101A4000D7F898003D4640F00100C7F89800FFF72E
:101A500061FA0646D5F8980010F0020F29D1FFF779
:101A600059FA801B022802D90320BDE8F883D5F873
:101A7000980010F0020FF2D01BE0D7F898003D4616
:101A800020F00100C7F89800FFF744FA0646D5F8A1
:101A9000980010F0020F0CD0FFF73CFA801B0228D0
:101AA00002D90320BDE8F883D5F8980010F0020FA2
:101AB000F2D1E06960B3B9683D460C2232EA010117
:101AC0004FF0FF3878D0022823D0286820F08070AB
:101AD0002860E86820F00300E860E86820F48810D7
:101AE00020F08070E860FFF715FA0446286810F0CF
:101AF000007F0DD0FFF70EFA001B022857D90320F4
:101B0000BDE8F8830010024018000020007000407B
:101B100083E0286820F080702860FFF7FBF9064614
:101B2000286810F0007F0AD0FFF7F4F9801B022824
:101B300001D90320E4E7286810F0007FF4D1616A3E
:101B4000206A491E40EA0110A16A228E090208EBB0
:101B5000520241EA4251084394F8341008EB510113
:101B600040EA416094F82C1040EAC160E9682C4AD0
:101B700011400843E860286840F080702860E868F9
:101B800040F08070E860FFF7C5F90446286810F05F
:101B9000007F42D1FFF7BEF9001B022801D90320C4
:101BA000AEE7286810F0007FF4D036E004E0286843
:101BB00010F0007F9ED130E001282CD0E868226A26
:101BC00000F00301914224D1626A00F0F001521E3C
:101BD000B1EB021F1DD1A26A00F4FE41B1EB022F4E
:101BE00017D194F82C1000F07842B2EBC16F10D1ED
:101BF000228E00F4C00108EB5202B1EB425F08D123
:101C000094F8341000F0C06008EB5101B0EB416F64
:101C100003D0012074E7012072E7002070E7000084
:101C20000C809F01401EB0F1807F01D301207047DE
:101C30004FF0E0214861044AF020107000208861D4
:101C4000072008610020704723ED00E090F87C1029
:101C5000012918D0012180F87C102421C0F88010BF
:101C600001680A680B6823F001030B6022F0005141
:101C700000224266036819602021C0F8801080F8B5
:101C80007C200020704702207047704770B50446E2
:101C900094F87C0001281DD0012084F87C002420C9
:101CA000C4F8800020680568026822F00102026022
:101CB0002068826822F0606211438160204600F053
:101CC000B3FF206805602020C4F88000002084F85D
:101CD0007C0070BD022070BD70B5044694F87C0095
:101CE00001281DD0012084F87C002420C4F8800045
:101CF00020680568026822F001020260206882689C
:101D000022F0604211438160204600F08DFF206880
:101D100005602020C4F88000002084F87C0070BD9D
:101D2000022070BD704770477047000070B50446D0
:101D30002368D86919689A6800F00F0CBCF1000F8D
:101D40000FD110F0200F0CD001F0200502F08056CA
:101D5000354306D0E16E00297ED02046BDE87040B4
:101D60000847BCF1000F78D0DFF898C101F49075F6
:101D700002EA0C0C5CEA05056FD010F0010F0AD0E6
:101D800011F4807F07D001251D62D4F8883043F01C
:101D90000103C4F8883010F0020F0BD012F0010FCD
:101DA00008D0256802232B62D4F8883043F004035E
:101DB000C4F8883010F0040F0BD012F0010F08D0D7
:101DC000256804232B62D4F8883043F00203C4F85A
:101DD000883010F0080F0FD001F0200353EA0C03F5
:101DE0000AD0D4F800C00823CCF82030D4F88830CA
:101DF00043F00803C4F88830D4F88830002B36D07C
:101E000010F0200F09D001F0200002F080510843AB
:101E100003D0E16E09B120468847D4F888002168D4
:101E2000896811F0400F02D110F0080F24D020462D
:101E300000F0DFFF2068816811F0400F18D0816842
:101E400021F040018160A06F70B12F498163A06FC4
:101E5000FEF7DCFE002801E009E014E007D0A06FE7
:101E6000816BBDE8704008472046FFF75DFF70BDFD
:101E70002046FFF759FF70BD2046FFF755FF0020B1
:101E8000C4F8880070BD10F4801F0AD012F4800FCF
:101E900007D04FF4801018622046BDE87040FFF76D
:101EA00042BF10F0800F0CD001F0800302F400025A
:101EB0001A4306D0216F0029E4D02046BDE87040C7
:101EC000084710F0400F07D011F0400F04D0204613
:101ED000BDE8704000F09FBF10F4000F07D011F074
:101EE000804F04D02046BDE87040FFF71BBF10F0C4
:101EF000807FC7D011F0004FC4D02046BDE87040AD
:101F0000FFF7C3BE01000010DF2D000810B5044626
:101F1000002C03D0D4F8800010B107E0012010BDE0
:101F2000002084F87C00204600F028F82420C4F823
:101F300080002068016821F001010160204601F065
:101F40007FF8012818D0A06A10B1204600F0A8FE42
:101F50002068416821F4904141602068816821F047
:101F60002A0181602068016841F00101016020467A
:101F7000BDE8104000F000BF012010BD10B586B0D4
:101F8000044614216846FEF77BF91649206888420A
:101F900026D11548816D41F400318165816D01F4D0
:101FA00000310591C16C41F00101C164C06C69460A
:101FB00000F0010005900C2000900220019000200C
:101FC00002900390072004904FF09040FEF77CFEB3
:101FD000002211462620FFF70BF82620FEF7FAFF15
:101FE00006B010BD004400400010024010B4D0F80C
:101FF0008430202B02D010BC0220704761B35AB34A
:1020000090F87C30012B2AD0012380F87C30816548
:10201000A0F85C20A0F85E200023C36681684FF022
:10202000FF0CB1F5805F1DD07F2429B3B1F1805F33
:102030002AD0A0F86030C0F888302221C0F884107F
:102040000168D1F808C04CF0010CC1F808C0416E1D
:10205000B1F1005F21D03CE010BC0120704710BC02
:1020600002207047016911B1A0F860C0E3E740F2B7
:10207000FF11A0F86010DEE7016911B1A0F860401F
:10208000D9E7A0F860C0D6E7016919B13F21A0F8EF
:102090006010D0E7A0F86040CDE7B0F8681091423A
:1020A00017D88168B1F5805F01D1016971B1134919
:1020B000C16680F87C3001680A6842F480720A6068
:1020C0000068816841F08051816011E00C49C1666F
:1020D000EFE78168B1F5805F01D1016959B1094924
:1020E000C16680F87C300068016841F4907101603D
:1020F00010BC002070470449C166F2E7992F000820
:10210000912E0008392F0008332E000810B515480D
:102110001549441E027820780A54401CC0B2207031
:10212000084410F8010C612811D1002020703223DE
:1021300013220E4800F022F80B4A0DA102F1140000
:1021400001F0BCFD0849C020143100F007F90A482D
:1021500000686060BDE81040012202490348FFF7B3
:1021600045BF0000090000202800002028010020B1
:102170002532307300000000200000202DE9F843D4
:1021800004460E4615461F46D4F88000202802D08B
:102190000220BDE8F883D6B1CDB194F87C000128C7
:1021A00018D0012084F87C004FF00008C4F8888023
:1021B0002120C4F88000FEF7ADFE8146A4F85450FB
:1021C000A4F85650A068B0F5805F06D007E0012063
:1021D000BDE8F8830220BDE8F883206978B1354670
:1021E0000026B4F85600D0B14B460022802120468C
:1021F000009701F0D5FC20B10320BDE8F88300254D
:10220000EFE7BDB12168287888626D1CB4F85600EC
:10221000401EA4F85600B4F856000028E4D14B46FE
:10222000002240212046009701F0BAFC48B103206B
:10223000BDE8F88330882168C0F308008862B61CC6
:10224000E4E72020C4F8800084F87C800020BDE80A
:10225000F8837047FEE7000000B585B0142168469A
:10226000FEF70EF84FF6FF70009000200321CDE935
:102270000201019069460248FEF726FD05B000BD47
:102280000008004800B585B014216846FDF7F8FF46
:102290004FF6FF7000900120019003200390002072
:1022A000029069460248FEF70FFD05B000BD000030
:1022B0000008004830B587B014216846FDF7E0FFFC
:1022C0001E48C16C41F00401C164C16C01F00401FD
:1022D0000591C16C41F00101C164C16C01F00101C3
:1022E0000591C16C41F00201C164C06C012500F090
:1022F000020005904FF44870CDE9000500240394D6
:10230000694602940E48FEF7DFFC28020394009011
:10231000CDE901544FF0904469462046FEF7D4FCC5
:10232000FFF7B0FFA06940F48070A0610448183046
:10233000016841F40871016007B030BD001002402F
:1023400000040048203AD2B2034B02EB420203EBF6
:10235000021200F019B8000024420008F0B50E4641
:102360000746002540F23F1407E021463846FFF7B4
:10237000E9FF103C6D1CA4B2761C3278002A01D013
:10238000142DF2D3F0BD00002DE9F04791468A46A6
:102390000026044600F086F8DFF84080012700BFE1
:1023A00000F0C0F85FF0000539F8160007FA05F1F3
:1023B0000842404601D1408800E0008800F086F8DD
:1023C0006D1C102DF0D3641CE4B25146204600F081
:1023D00069F8761C182EE3D3BDE8F08700000020D2
:1023E00010B5FFF767FF002000F014F8084CA0803C
:1023F000A088A0F50241303906D000F0C8FA0020CC
:1024000000F008F8A08010BD00F038FAF7E70000EF
:102410000000002070B51D490A6842F400720A608D
:102420000A6842F480720A60184C103C226842F03C
:1024300020022260164A1060086840F02000086000
:1024400000BF00BF00BF206840F02000206020686F
:1024500040F480702060FFF7FFFE4FF09041886AE3
:1024600040F48070886200BF00BF00BF0848001FB2
:10247000006885B2886940F480708861FFF702FFC8
:10248000206840F400702060284670BD2804004891
:102490001408004801B5BDF800000149488008BD96
:1024A0000000002010B50C460146202000F068F81E
:1024B0002146BDE81040212000F062B801B5BDF80A
:1024C00000000149088008BD00000020134A11687F
:1024D00041F400711160114910390B6843F48073A5
:1024E0000B600B6843F020030B600D4B1860106805
:1024F00040F02000106000BF00BF00BF086840F03F
:1025000020000860086840F48070086000BF00BFC9
:1025100000BF086840F40070086070472804004855
:10252000140800481449086840F4007008600868FE
:1025300040F48070086010481038026842F02002B1
:1025400002600E4B22221A600A6842F020020A60E2
:1025500000BF00BF00BF016841F0200101600168B9
:1025600041F48071016000BF00BF00BF016841F409
:1025700000710160704700002804004814080048FA
:10258000184B10B51A6842F400721A601A6842F4C7
:1025900080721A60134A103A146844F020041460E0
:1025A000114C2060186840F02000186000BF00BF88
:1025B00000BF106840F020001060106840F4807088
:1025C00010602160186840F02000186000BF00BF54
:1025D00000BF106840F020001060106840F4807068
:1025E000106010BD280400481408004830B58BB0B6
:1025F000002408940994202168460A94FDF740FEBF
:102600001B484FF0A0410425C0E900148460C46059
:102610000461C0E90545047744770121016280F82F
:102620002440C462046380F83840C46380F84040AA
:10263000FEF794F908B1FDF785FE08A90C48089447
:10264000FDF782FE08B1FDF77DFE0A4800900620E6
:10265000CDE901047F200594CDE9030569460448CE
:10266000FDF7F4FE002801D0FDF76CFE0BB030BD85
:10267000500000200008302E30B589B02021684677
:10268000FDF7FEFD184817490024C0E900148460D6
:10269000C46004250461C0E905450477447701213D
:1026A000016280F82440C462046380F83840C46347
:1026B00080F84040FEF752F908B1FDF743FE0B48A1
:1026C00000900620CDE901047F200594CDE90305A3
:1026D00069460548FDF7BAFE002801D0FDF732FE35
:1026E00009B030BD00010050BC0000200080F03E69
:1026F0002DE9F04786B014216846FDF7C1FD2C484E
:10270000C16C41F00401C164C16C01F00401059188
:10271000C16C41F02001C164C16C01F02001059140
:10272000C16C41F00101C164C16C01F0010105916E
:10273000C16C41F00201C164C06CDFF8788000F028
:1027400002004FF6FF740590002221464046FEF736
:10275000DBFB4FF480764FF090490022314648462B
:10276000FEF7D2FBDFF850A04FF44877002239463D
:102770005046FEF7C9FB0125CDE90045002402942F
:10278000694640460394FEF79FFA0096CDE901544E
:10279000694648460394FEF797FA0097CDE901543D
:1027A000694650460394FEF78FFA06B0BDE8F087FD
:1027B000001002400008004800040048184810B506
:1027C000164901604FF4E1314160002181600C2223
:1027D000C160C0E904128161C1610162416281622C
:1027E000FFF794FB08B1FDF7ADFD00210C48FFF7A2
:1027F00073FA08B1FDF7A6FD00210948FFF746FA74
:1028000008B1FDF79FFD0648FFF720FA002803D026
:10281000BDE81040FDF796BD10BD0000004400402B
:1028200028010020FEE77047704700001049C86883
:1028300000F00302C868C0F30310401C032A0ED046
:102840000C4AB2FBF0F0CA68C2F306225043C968D2
:10285000C1F34161491C4900B0FBF1F07047064AE1
:10286000B2FBF0F0CA68C2F306225043EFE7000063
:10287000001002400024F40000366E0130B5012142
:102880000020FFF77DFE4FF47A70FDF74DFD00212B
:102890000120FFF775FE41F290711020FFF770FEE6
:1028A0004FF41C516020FFF76BFE01216120FFF700
:1028B00067FE02214620FFF763FE48F21001132055
:1028C000FFF75EFE48F2FE011220FFF759FE4FF4BB
:1028D000A0610220FFF754FE41F230010320FFF710
:1028E0004FFE40F2033421463020FFF749FE2146D7
:1028F0003120FFF745FE21463220FFF741FEE51E5D
:1029000029463320FFF73CFE03213420FFF738FE31
:1029100021463520FFF734FE14213620FFF730FE24
:1029200021463720FFF72CFE21463820FFF728FEEE
:1029300021463920FFF724FE29463A20FFF720FEE2
:1029400003213B20FFF71CFE21463C20FFF718FE29
:102950004FF4A0513D20FFF713FE4FF40071922079
:10296000FFF70EFE21469320FFF70AFE40F60D0109
:102970009020FFF705FE41F218010320FFF700FE4B
:10298000BDE8304040F273110720FFF7F9BD10B5E4
:1029900043F20801E320FFF7F3FD1221E720FFF7E0
:1029A000EFFD41F23121EF20FFF7EAFD0021012088
:1029B000FFF7E6FD4FF4E0610220FFF7E1FD41F291
:1029C00030010320FFF7DCFD00210420FFF7D8FDD4
:1029D00040F207210820FFF7D3FD00210920FFF76F
:1029E000CFFD00210A20FFF7CBFD00210C20FFF7CF
:1029F000C7FD00210D20FFF7C3FD00210F20FFF7C9
:102A0000BFFD00211020FFF7BBFD07211120FFF7BC
:102A1000B7FD00211220FFF7B3FD00211320FFF7BF
:102A2000AFFDC820FEF73CF941F290611020FFF79E
:102A3000A7FD40F227211120FFF7A2FD3220FEF76B
:102A40002FF91D211220FFF79BFD3220FEF728F9F8
:102A50004FF400611320FFF793FD14212920FFF7A5
:102A60008FFD0B212B20FFF78BFD3220FEF718F98D
:102A700000212020FFF784FD00212120FFF780FDA9
:102A800007213020FFF77CFD40F207713120FFF76E
:102A900077FD06213220FFF773FD40F204713520E7
:102AA000FFF76EFD41F604713620FFF769FD042142
:102AB0003720FFF765FD00213820FFF761FD40F268
:102AC00006713920FFF75CFD40F201713C20FFF7F1
:102AD00057FD0F213D20FFF753FD00215020FFF748
:102AE0004FFDEF215120FFF74BFD00215220FFF752
:102AF00047FD40F23F115320FFF742FD4FF41C51B8
:102B00006020FFF73DFD01216120FFF739FD002125
:102B10006A20FFF735FD00218020FFF731FD0021FD
:102B20008120FFF72DFD00218220FFF729FD0021E4
:102B30008320FFF725FD00218420FFF721FD0021E0
:102B40008520FFF71DFD10219020FFF719FD0021C2
:102B50009220FFF715FD03219320FFF711FD4FF49D
:102B600088719520FFF70CFD00219720FFF708FDE5
:102B700000219820FFF704FD41F218010320FFF720
:102B8000FFFCBDE8104040F273110720FFF7F8BCCE
:102B90007047FEF7C5B910B5A4B038216846FDF7F7
:102BA0006FFB14211FA8FDF76BFB44210EA8FDF756
:102BB00067FB4FF40070FEF761FA0220C101039138
:102BC000402104910090079008901421CDE909015B
:102BD0000B900C900D906846FEF792FD0F201F9011
:102BE00000240320CDE92004014622941FA8239449
:102BF000FEF71EFC48F202000E9000071D90109494
:102C00000EA8FEF7A9FA24B010BD0000054801681F
:102C100041F47001016003494FF0006080390860A1
:102C20007047000088ED00E010B485B018A14A6834
:102C300009680392029118A14A68096801920091FB
:102C4000416E00291CD002689168C1F3426192680C
:102C5000520F02AB13F802C01DF802204FEACC0459
:102C6000B4FBF2F2EC46A0F86A205A5C1CF80110A2
:102C7000D200B2FBF1F1A0F8681005B010BC7047AB
:102C80000121A0F86A10A0F8681005B010BC7047C8
:102C90000101010307010000080402040801010109
:102CA00090F8281011F0010F06D001684A68C36A35
:102CB00022F400321A434A6090F8281011F0020FF3
:102CC00006D001684A68036B22F480321A434A60D6
:102CD00090F8281011F0040F06D001684A68436B81
:102CE00022F480221A434A6090F8281011F0080F4D
:102CF00006D001684A68836B22F400421A434A6096
:102D000090F8281011F0100F06D001688A68C36B84
:102D100022F480521A438A6090F8281011F0200F94
:102D200006D001688A68036C22F400521A438A6054
:102D300090F8281011F0400F11D001684A68436CD8
:102D400022F480121A434A60416CB1F5801F06D10B
:102D500001684A68836C22F4C0021A434A6090F802
:102D6000281011F0800F06D001684A68C06C22F468
:102D70000022104348607047F8B504460026C4F8A6
:102D80008860FEF7C7F80746206800686FF07E4548
:102D900010F0080F0AD03B4600224FF400112046E5
:102DA000009500F0FDFE08B10320F8BD2068006822
:102DB00010F0040F0AD03B4600224FF48001204659
:102DC000009500F0EDFE08B10320F8BD2020C4F806
:102DD0008000C4F8840084F87C600020F8BD10B541
:102DE000806A0021A0F85E10A0F85610FEF79CFF44
:102DF00010BD01680A6822F490720A6001688A684E
:102E000022F0010222F080528A602021C0F8841052
:102E10000021C166704710B501680A6822F04002BF
:102E20000A602021C0F8801000210167FFF711FA25
:102E300010BD10B5B0F86020D0F884300168222BA6
:102E400004D0886940F00800886110BD496A836D2C
:102E500011401980816D891C8165B0F85E10491E92
:102E6000A0F85E10B0F85E100029EED101680A6883
:102E700022F490720A6001688A6822F001028A6076
:102E80002021C0F884100021C166FFF73FF910BD72
:102E90002DE9F0410446B4F86060D4F8840022289B
:102EA00006D02068816941F008018161BDE8F081A8
:102EB000B4F8685045B300274FF020082068406AF6
:102EC000A16D30400880A06D801CA065B4F85E0044
:102ED000401EA4F85E00B4F85E0088B9206801685E
:102EE00021F4807101602068816821F0010121F0E6
:102EF00080518160C4F88480E7662046FFF706F9B8
:102F0000681E85B2002DD9D1B4F85E000028CDD05E
:102F1000B4F868108142C9D92068816821F08051D5
:102F200081600448E0662068016841F0200101608A
:102F3000BDE8F081332E000810B5B0F86020D0F85D
:102F400084300168222B04D0886940F00800886131
:102F500010BD496A1140826D1170816D491C8165F7
:102F6000B0F85E10491EA0F85E10B0F85E1000299F
:102F7000EED101680A6822F490720A6001688A68DA
:102F800022F001028A602021C0F884100021C1666D
:102F9000FFF7BCF810BD00002DE9F0410446B4F87D
:102FA0006060D4F88400222806D02068816941F04E
:102FB00008018161BDE8F081B4F8685045B300278D
:102FC0004FF020082068406AA16D30400870A06D65
:102FD000401CA065B4F85E00401EA4F85E00B4F882
:102FE0005E0088B92068016821F480710160206862
:102FF000816821F0010121F080518160C4F8848052
:10300000E7662046FFF782F8681E85B2002DD9D109
:10301000B4F85E000028CDD0B4F868108142C9D958
:103020002068816821F0805181600448E066206852
:10303000016841F020010160BDE8F081392F0008EE
:103040002DE9F0470446002600270020FE4B2168AA
:10305000D4F810C0A268E56942EA0C02D4F814C0A2
:103060004CEA050C42EA0C02D4F864C04CEA0202B5
:10307000D1F800C0F54D0CEA050C4CEA02020A60DA
:1030800021684A68D4F80CC022F4405242EA0C028B
:103090004A60A16922689A4203D0D4F820C04CEA61
:1030A0000101D2F808C02CF4306C2CF06E4C4CEAC4
:1030B000010191602168CA6AD4F824C022F00F028D
:1030C00042EA0C02CA622268E149A2F1804CBCF5D6
:1030D0009C3C20D0A2F1804CBCF5884C30D0A2F1B1
:1030E000804CBCF5904C40D0A2F1804CBCF5984C83
:1030F00050D09A426BD1D1F8881011F440615ED063
:10310000B1F5806F5FD0B1F5006F5AD0B1F5406F67
:103110005BD010255CE0D1F8881011F0030107D0D6
:10312000012909D0022905D0032907D010254FE035
:1031300001254DE002254BE0042549E0082547E044
:10314000D1F8881011F00C0107D0042909D0082902
:1031500005D00C2907D010253AE0002538E00225DB
:1031600036E0042534E0082532E0D1F8881011F06B
:10317000300107D0102909D0202905D0302907D0E7
:10318000102525E0002523E0022521E004251FE08D
:1031900008251DE0D1F8881011F0C00107D04029A2
:1031A00009D0802905D0C02907D0102510E00025BE
:1031B0000EE002250CE004250AE0082508E00025C1
:1031C00006E0022504E0042502E0082500E01025C1
:1031D000DFF880A24FF400414FF000089A4240F01F
:1031E0003582ADB1022D4BD0042D6FD0082D6ED09D
:1031F0000127002800F0C884D4F8049009EB4901A5
:10320000814202D8B0EB093F71D9012700F0BCBC64
:10321000FEF716FA0146606AC8B1012819D00228E3
:1032200019D0032819D0042819D0052819D0062848
:1032300019D0072819D0082819D0092819D00A2828
:1032400019D00B2819D00120B1FBF0F0D1E70120F3
:10325000FAE70220F8E70420F6E70620F4E7082062
:10326000F2E70A20F0E70C20EEE71020ECE7202040
:10327000EAE74020E8E78020E6E74FF48070E3E7E4
:10328000606AC8B1012819D0022819D0032819D0C2
:10329000042819D005281BD006281BD007281BD0CE
:1032A00008281BD009281BD00A281BD00B281BD0AC
:1032B0000120BAFBF0F09CE70120FAE70220F8E7D2
:1032C0000420F6E70620F4E70820F2E710E047E0E4
:1032D0000A20EEE70C20ECE71020EAE72020E8E7E0
:1032E0004020E6E78020E4E74FF48070E1E76CE0FF
:1032F000FEF7CAF90146606AC8B1012819D0022850
:1033000019D0032819D0042819D0052819D0062867
:1033100019D0072819D0082819D0092819D00A2847
:1033200019D00B2819D00120B1FBF0F061E7012082
:10333000FAE70220F8E70420F6E70620F4E7082081
:10334000F2E70A20F0E70C20EEE71020ECE720205F
:10335000EAE74020E8E78020E6E74FF48070E3E703
:10336000606AC8B1012819D0022819D0032819D0E1
:10337000042819D0052819D0062819D0072819D0F3
:10338000082819D0092819D00A2819D00B2819D0D3
:103390000120B1FBF0F02CE70120FAE70220F8E76A
:1033A0000420F6E70620F4E70820F2E70A20F0E719
:1033B0000C20EEE71020ECE72020EAE74020E8E7C9
:1033C0008020E6E74FF48070E3E77DB1022D61D005
:1033D000042D7CD0082D7BD001271F49A6F5407015
:1033E000884276D82068C66000F0CEBBFEF728F988
:1033F0000146606A90B3012835D0022835D00328F1
:1034000035D0042835D0052835D0062835D00728F2
:1034100035D0082835D0092835D00A2835D00B28D2
:1034200035D00122002308461946FCF7F1FE0902B7
:10343000626841EA106103025008181841EB080164
:103440000023FCF7E5FE0AE000800040F369FFCFAF
:10345000001002400024F400FFFC0F0001E00646CB
:10346000BBE70122DEE70222DCE70422DAE70622DC
:10347000D8E70822D6E70A22D4E70C22D2E71022A6
:10348000D0E72022CEE74022CCE78022CAE74FF4E3
:103490008072C7E7606A70B301282FD002282FD04E
:1034A00003282FD004282FD005282FD006282FD06E
:1034B00007282FD008282FD009282FD00A282FD04E
:1034C0000B282FD0012200235046194602E02CE0A1
:1034D00073E0B9E0FCF79CFE090241EA10610202C8
:1034E0004FEA5900101841EB08014A460023FCF747
:1034F0008FFE064671E7FFE70122E4E70222E2E7DA
:103500000422E0E70622DEE70822DCE70A22DAE707
:103510000C22D8E71022D6E72022D4E74022D2E7B7
:103520008022D0E74FF48072CDE7FEF7ADF8014678
:10353000606A48B3012829D0022829D0032829D05D
:10354000042829D0052829D0062829D0072829D0E1
:10355000082829D0092829D00A2829D00B2829D0C1
:103560000122002308461946FCF752FE0902626850
:1035700041EA106103025008181841EB08010023CA
:10358000FCF746FE064628E70122EAE70222E8E7C2
:103590000422E6E70622E4E70822E2E70A22E0E75F
:1035A0000C22DEE71022DCE72022DAE74022D8E70F
:1035B0008022D6E74FF48072D3E7606A58B30128BF
:1035C0002BD002282BD003282BD004282BD0052861
:1035D0002BD006282BD007282BD008282BD0092841
:1035E0002BD00A282BD00B282BD0012200234FF4FC
:1035F00000401946FCF70CFE090241EA1061020284
:103600004FEA5900101841EB08014A460023FCF725
:10361000FFFD0646E1E60122E8E70222E6E7042292
:10362000E4E70622E2E70822E0E70A22DEE70C22CE
:10363000DCE71022DAE72022D8E74022D6E7802212
:10364000D4E74FF48072D1E701279DE2E0694FF69D
:10365000EF79B0F5004F08D0092D74D2DFE805F0FE
:10366000F4F3F273F1737373F000092D6CD2DFE899
:1036700005F00544856BC16B6B6BEC00FDF7E0FF5B
:103680000146606A00B3012820D0022820D0032818
:1036900020D0042820D0052820D0062820D00728B4
:1036A00020D0082820D0092820D00A2820D00B2894
:1036B00020D00120B1FBF0F04100606801EB500127
:1036C000B1FBF0F086B217E10120F3E70220F1E749
:1036D0000420EFE70620EDE70820EBE70A20E9E702
:1036E0000C20E7E71020E5E72020E3E74020E1E7B2
:1036F0008020DFE74FF48070DCE7FDF7B3FF014681
:10370000606A10B3012822D0022822D0032822D0D8
:10371000042822D0052822D0062822D0072822D02B
:10372000082822D0092822D00A2822D00B2822D00B
:103730000120B1FBF0F04100606801EB5001B1FBEA
:10374000F0F086B2D8E016E2D5E00120F1E70220E1
:10375000EFE70420EDE70620EBE70820E9E70A2081
:10376000E7E70C20E5E71020E3E72020E1E7402031
:10377000DFE78020DDE74FF48070DAE7606A00B3AE
:10378000012820D0022820D0032820D0042820D0CF
:10379000052820D0062820D0072820D0082820D0AF
:1037A000092820D00A2820D00B2820D00120BAFBDD
:1037B000F0F04100606801EB5001B1FBF0F086B21F
:1037C0009AE00120F3E70220F1E70420EFE706206A
:1037D000EDE70820EBE70A20E9E70C20E7E71020F7
:1037E000E5E72020E3E74020E1E78020DFE74FF432
:1037F0008070DCE7FDF748FF0146606A30B30128BE
:1038000026D0022826D0032826D0042826D0052832
:1038100026D0062826D0072826D0082826D0092812
:1038200026D00A2826D00B2826D00120B1FBF0F0A4
:103830004100606801EB5001B1FBF0F086B25BE043
:103840005EE11FE1E3E0A4E065E018E00120EDE7C0
:103850000220EBE70420E9E70620E7E70820E5E798
:103860000A20E3E70C20E1E71020DFE72020DDE776
:103870004020DBE78020D9E74FF48070D6E7606A0C
:1038800000B3012820D0022820D0032820D004280B
:1038900020D0052820D0062820D0072820D00828AE
:1038A00020D0092820D00A2820D00B2820D00120A1
:1038B000B1FBF0F04100606801EB5001B1FBF0F0AA
:1038C00086B219E00120F3E70220F1E70420EFE7D8
:1038D0000620EDE70820EBE70A20E9E70C20E7E700
:1038E0001020E5E72020E3E74020E1E78020DFE744
:1038F0004FF48070DCE70127A6F11000484508D896
:103900004FF6F0703040C6F3420108432168C860AA
:103910003AE1012738E1FDF793FE0146606AF8B10C
:1039200001281FD002281FD003281FD004281FD031
:1039300005281FD006281FD007281FD008281FD011
:1039400009281FD00A281FD00B281FD00120B1FB47
:10395000F0F1606801EB5001B1FBF0F086B20BE1D1
:103960000120F4E70220F2E70420F0E70620EEE76A
:103970000820ECE70A20EAE70C20E8E71020E6E759
:103980002020E4E74020E2E78020E0E74FF4807069
:10399000DDE7FDF767FE0146606AF8B101281FD038
:1039A00002281FD003281FD004281FD005281FD0AD
:1039B00006281FD007281FD008281FD009281FD08D
:1039C0000A281FD00B281FD00120B1FBF0F160683E
:1039D00001EB5001B1FBF0F086B2CDE00120F4E73D
:1039E0000220F2E70420F0E70620EEE70820ECE7EB
:1039F0000A20EAE70C20E8E71020E6E72020E4E7C9
:103A00004020E2E78020E0E74FF48070DDE7606A65
:103A1000F8B101281FD002281FD003281FD0042886
:103A20001FD005281FD006281FD007281FD0082820
:103A30001FD009281FD00A281FD00B281FD0012013
:103A4000BAFBF0F1606801EB5001B1FBF0F086B217
:103A500092E00120F4E70220F2E70420F0E70620DC
:103A6000EEE70820ECE70A20EAE70C20E8E7102060
:103A7000E6E72020E4E74020E2E78020E0E74FF49B
:103A80008070DDE7FDF700FE0146606AF8B10128AD
:103A90001FD002281FD003281FD004281FD00528BC
:103AA0001FD006281FD007281FD008281FD009289C
:103AB0001FD00A281FD00B281FD00120B1FBF0F126
:103AC000606801EB5001B1FBF0F086B254E00120D8
:103AD000F4E70220F2E70420F0E70620EEE70820F2
:103AE000ECE70A20EAE70C20E8E71020E6E72020D0
:103AF000E4E74020E2E78020E0E74FF48070DDE774
:103B0000606AF8B101281FD002281FD003281FD0F7
:103B100004281FD005281FD006281FD007281FD033
:103B200008281FD009281FD00A281FD00B281FD013
:103B30000120B1FBF0F1606801EB5001B1FBF0F046
:103B400086B219E00120F4E70220F2E70420F0E752
:103B50000620EEE70820ECE70A20EAE70C20E8E779
:103B60001020E6E72020E4E74020E2E78020E0E7BD
:103B70004FF48070DDE70127A6F11000484502D818
:103B80002068C66000E001270120A4F86A00A4F8BC
:103B90006800C4F86C80C4F870803846BDE8F087CF
:103BA0002DE9F0410446069D884617461E462068CA
:103BB000C06938EA000016D00020B84210D1B5F133
:103BC000FF3F05D0FDF7A6F9801BA8420DD865B1CF
:103BD0002068C06938EA00001CD00020B842EED04E
:103BE0000020BDE8F0810120E7E72068016821F4AA
:103BF000D07101602068816821F00101816020207E
:103C0000C4F88000C4F88400002084F87C000320FD
:103C1000BDE8F0810120E1E70148FEF787B8000028
:103C200028010020FEE7000010B509A000F036F8DA
:103C30004FF47A70FDF734F810A000F02FF832201E
:103C4000FDF72EF8BDE8104010A000F027B80000E6
:103C500041542B43495053544152543D22544350F4
:103C6000222C223139322E3136382E332E31323257
:103C7000222C383038300D0A0000000041542B430C
:103C800049504D4F44453D310D0A000041542B43EE
:103C9000495053454E440D0A000000000FB4054B37
:103CA00010B503A9044A029800F02CF810BC5DF886
:103CB00014FB000051400008240000200FB4084B02
:103CC00010B504A902AA039800F01CF8044602A942
:103CD000002000F0B8F9204610BC5DF814FB00008D
:103CE0004740000802E008C8121F08C1002AFAD1A4
:103CF00070477047002001E001C1121F002AFBD16C
:103D0000704700002DE9FF4F8BB08846054600261E
:103D100006E025280BD0DDE90D1290476D1C761CBE
:103D200028780028F5D10FB03046BDE8F08F002488
:103D3000A146A2460122AE4900E0044315F8013F26
:103D4000203B02FA03F00842F7D128782A2810D045
:103D50006FF02F022878A0F13001092915D809EB5E
:103D6000890102EB410144F0020400EB01096D1CE2
:103D7000F0E758F8041B5FEA010903D544F4005446
:103D8000C9F1000944F002046D1C28782E2817D1CF
:103D900015F8010F44F004042A280ED06FF02F020A
:103DA0002878A0F1300109290AD80AEB8A0102EB30
:103DB000410100EB010A6D1CF2E758F804AB6D1CE1
:103DC00028786C280FD006DC4C2817D068280DD036
:103DD0006A2814D104E0742810D07A280FD10DE09D
:103DE00044F400140AE044F4801401E044F4401464
:103DF0006978814202D104F580146D1C6D1C28780D
:103E0000692865D006DC00288DD0632827D0642877
:103E100006D15DE06E2808D073282AD0752877D0A7
:103E2000DDE90D129047761CE0E0C4F30250022851
:103E300009D003280DD0D8F8001004280DD00E604A
:103E400008F10408D2E0D8F80010F217C1E90062C6
:103E5000F6E7D8F800100E80F2E70E70F0E718F8D9
:103E6000041B8DF8001000208DF80100EB460120A6
:103E700003E058F804BB4FF0FF3061074FF0000734
:103E800001D40AE07F1C57450DDA8742FADB1BF8A4
:103E900007100029F6D106E07F1C8742FCDB1BF8E7
:103EA00007100029F8D1DDE90D23A9EB07008146B1
:103EB000214600F0B1F83044C61904E0DDE90D12E6
:103EC0001BF8010B90477F1EF8D22146484688E038
:103ED00058F8040BC4F302514FF00A0B032900D128
:103EE00000B2042900D140B2002802DA40422D215C
:103EF00002E0210505D52B218DF82410012104E0D5
:103F000006E0E10710D02021F6E708AF089113E0A2
:103F100058F8040BC4F302514FF00A0B032900D1E7
:103F200080B2042900D1C0B20021EEE75946FCF767
:103F3000B2F9303107F8011D0028F7D1ADEB0700C9
:103F400000F1200B600702D524F4803401E04FF02B
:103F5000010ADA4502DDAAEB0B0000E000208246F0
:103F600000EB0B0108980144A9EB01000A90E00363
:103F700006D4DDE90D2321460A9800F04DF80644E9
:103F80004FF0000908E009A911F80900DDE90D1258
:103F9000904709F10109761C08998945F3DBE00394
:103FA0000CD5DDE90D2321460A9800F035F80644CA
:103FB00004E0DDE90D1230209047761CBAF10001D3
:103FC000AAF1010AF5DC05E0DDE90D1217F8010B95
:103FD0009047761CBBF10001ABF1010BF4DC0A98B1
:103FE0002146DDE90D2300F005F806446D1C97E637
:103FF000092801002DE9F041044600251E46174618
:10400000880404D405E039462020B0476D1C641EA6
:10401000F9D52846BDE8F0812DE9F0410446002598
:104020001E469046C80301D5302700E020278804AB
:1040300004D505E041463846B0476D1C641EF9D5ED
:104040002846BDE8F0810A68531C0B601070704769
:1040500013B53223012269460248FEF78FF8009813
:104060001CBD00002801002010B513A10020FEF7A0
:1040700075F911A11820FEF771F915A13020FEF78E
:104080006DF90DA14820FEF769F90BA16020FEF73C
:1040900065F909A17820FEF761F913A19020FEF7D8
:1040A0005DF905A1A820FEF759F9BDE8104002A16D
:1040B000D820FEF753B90000202020202020202007
:1040C0002020202020202020202020200000000070
:1040D0002020202020204C4344205465737420204D
:1040E0002020202000000000202020202020204828
:1040F000414C204C4942202020202020000000007C
:10410000FCF716FFFEF747FDFEF7F2FAFEF76EFA30
:10411000FEF7B2FAFEF752FBFEF762F9FFF784FDF5
:1041200001221C491C48FDF761FF0020FEF7B2F98F
:104130004FF6FF70FEF7C2F918A10020FEF70EF946
:1041400016A11820FEF70AF91AA13020FEF706F989
:1041500012A14820FEF702F910A16020FEF7FEF838
:104160000EA17820FEF7FAF818A19020FEF7F6F8D5
:104170000AA1A820FEF7F2F81AA1C020FEF7EEF877
:1041800006A1D820FEF7EAF800F038F8FFF76CFF38
:10419000FAE700000900002028010020202020204C
:1041A000202020202020202020202020202020200F
:1041B000000000002020202020204C434420546593
:1041C00073742020202020200000000020202020C8
:1041D00020202048414C204C4942202020202020F3
:1041E0000000000020202020202020202040383007
:1041F0002020202020202020000000000648016808
:1042000006484268891A322905D300210170142119
:104210000348FCF735B87047200000200800002054
:104220002800002000000000000000000000000046
:10423000000000000000000000000000000000007E
:10424000000000000000000000000000000000006E
:1042500000000000000080018001800180018001D9
:104260008001800180018001800180018001800146
:10427000000000008001800100000000000000003C
:104280000000000000000000CC00CC00CC00CC00FE
:10429000CC00CC0000000000000000000000000086
:1042A000000000000000000000000000000000000E
:1042B00000000000000000000000000000000000FE
:1042C000600C600C600C30063006FE1FFE1F3006CE
:1042D00038071803FE1FFE1F180318038C018C01FA
:1042E0008C01000000008000E003F80F9C0E8C1C85
:1042F0008C188C009800F801E007800E801C8C1848
:104300008C189C18B80CF00FE003800080000000AF
:10431000000000000000000000000E181B0C110C33
:1043200011061106110311039B018E01C038C06CE8
:1043300060446044304430441844186C0C38000029
:10434000000000000000E001F0033807180618061E
:104350003003F001F000F8009C310E33061E061CFD
:10436000061C063FFC73F021000000000000000066
:1043700000000000000000000C000C000C000C000D
:104380000C000C0000000000000000000000000015
:10439000000000000000000000000000000000001D
:1043A000000000000000000200038001C000C00007
:1043B000600060003000300030003000300030001D
:1043C0003000300060006000C000C00080010003C9
:1043D00000020000000020006000C0008001800199
:1043E00000030003000600060006000600060006A3
:1043F000000600060003000380018001C000600089
:10440000200000000000000000000000000000008C
:10441000C000C000D806F807E001300338070000EC
:10442000000000000000000000000000000000008C
:10443000000000000000000000000000000000007C
:1044400080018001800180018001FC3FFC3F8001F0
:104450008001800180018001000000000000000058
:10446000000000000000000000000000000000004C
:10447000000000000000000000000000000000003C
:1044800000000000000080018001000100018000A8
:10449000000000000000000000000000000000001C
:1044A000000000000000000000000000E007E0073E
:1044B00000000000000000000000000000000000FC
:1044C00000000000000000000000000000000000EC
:1044D00000000000000000000000000000000000DC
:1044E000000000000000C000C0000000000000004C
:1044F000000000000000000C000C00060006000692
:104500000003000300038003800180018001C000DC
:10451000C000C0006000600000000000000000005B
:10452000000000000000E003F007380E180C0C1823
:104530000C180C180C180C180C180C180C180C185B
:10454000180C380EF007E003000000000000000027
:1045500000000000000000018001C001F00198018E
:10456000880180018001800180018001800180013B
:104570008001800180018001000000000000000037
:10458000000000000000E003F80F180C0C180C18D5
:1045900000180018000C000600038001C000600035
:1045A00030001800FC1FFC1F00000000000000008D
:1045B000000000000000E001F807180E0C0C0C0CC5
:1045C000000C0006C003C007000C001800180C18EF
:1045D0000C18180CF807E0030000000000000000B1
:1045E000000000000000000C000E000F000F800D06
:1045F000C00C600C600C300C180C0C0CFC3FFC3F29
:10460000000C000C000C000C00000000000000007A
:10461000000000000000F80FF80F180018000C0050
:10462000EC03FC071C0E001C0018001800180C18E6
:104630001C0C180EF807E00300000000000000004A
:10464000000000000000C007F00F381C1818180008
:104650000C00CC03EC0F3C0E1C1C0C180C180C1896
:10466000181C380EF007E0030000000000000000F6
:10467000000000000000FC1FFC1F000C00060006EC
:10468000000380038001C001C000E0006000600002
:10469000700030003000300000000000000000001A
:1046A000000000000000E003F007380E180C180CA2
:1046B000180C3806F007F007180C0C180C180C181A
:1046C0000C18380CF80FE003000000000000000098
:1046D000000000000000E003F007380E1C0C0C186E
:1046E0000C180C181C1C381EF81BE0190018000CC4
:1046F000000C1C0EF807F001000000000000000094
:1047000000000000000000000000000000000000A9
:104710008001800100000000000000000000000097
:104720000000000080018001000000000000000087
:104730000000000000000000000000000000000079
:104740008001800100000000000000000000000067
:1047500000000000800180010001000180000000D5
:104760000000000000000000000000000000000049
:10477000000000000010001C800FE003F80018008B
:10478000F800E003800F001C001000000000000093
:104790000000000000000000000000000000000019
:1047A00000000000F81F000000000000F81F0000DB
:1047B00000000000000000000000000000000000F9
:1047C00000000000000000000000000000000000E9
:1047D0000000000008003800F001C007001F0018AA
:1047E000001FC007F00138000800000000000000B2
:1047F000000000000000E003F80F180C0C180C1863
:104800000018000C000600038001C000C000C000BA
:1048100000000000C000C000000000000000000018
:104820000000000000000000E00718180420C22962
:10483000224A114409440944094409221113E20C93
:10484000024004201818E0070000000000000000EB
:1048500000000000000080038003C006C006C00600
:10486000600C600C301830183018F83FF83F1C709E
:104870000C600C6006C006C00000000000000000D4
:10488000000000000000FC03FC0F0C0C0C180C18BE
:104890000C180C0CFC07FC0F0C180C300C300C30F6
:1048A0000C300C18FC1FFC0700000000000000008A
:1048B000000000000000C007F01F38381C300C70EA
:1048C00006600600060006000600060006000660F8
:1048D0000C701C30F01FE00700000000000000001A
:1048E000000000000000FE03FE0F060E061806186A
:1048F0000630063006300630063006300630061820
:104900000618060EFE0FFE03000000000000000067
:10491000000000000000FC3FFC3F0C000C000C00FD
:104920000C000C00FC1FFC1F0C000C000C000C0009
:104930000C000C00FC3FFC3F0000000000000000E9
:10494000000000000000F83FF83F180018001800B1
:1049500018001800F81FF81F180018001800180099
:1049600018001800180018000000000000000000E7
:10497000000000000000E00FF83F3C780E6006E009
:1049800007C00300030003FE03FE03C007C006C008
:104990000EC03CF0F83FE00F0000000000000000F7
:1049A0000000000000000C300C300C300C300C30DB
:1049B0000C300C30FC3FFC3F0C300C300C300C3019
:1049C0000C300C300C300C300000000000000000F7
:1049D0000000000000008001800180018001800152
:1049E00080018001800180018001800180018001BF
:1049F00080018001800180010000000000000000B3
:104A00000000000000000006000600060006000688
:104A1000000600060006000600060006000618064E
:104A200018063807F003E001000000000000000055
:104A300000000000000006300618060C06060603FB
:104A40008601C60066007600DE008E0106030606BB
:104A5000060C06180630066000000000000000008A
:104A600000000000000018001800180018001800CE
:104A70001800180018001800180018001800180076
:104A800018001800F81FF81F0000000000000000C8
:104A90000000000000000EE01EF01EF01EF036D8F0
:104AA00036D836D836D866CC66CC66CCC6C6C6C62E
:104AB000C6C6C6C686C386C300000000000000004C
:104AC0000000000000000C301C303C303C306C30EA
:104AD0006C30CC30CC308C310C330C330C360C3683
:104AE0000C3C0C3C0C380C300000000000000000B6
:104AF000000000000000E007F81F1C380E70066080
:104B000003C003C003C003C003C003C003C00660EA
:104B10000E701C38F81FE0070000000000000000C5
:104B2000000000000000FC0FFC1F0C380C300C30A3
:104B30000C300C300C18FC1FFC070C000C000C0097
:104B40000C000C000C000C00000000000000000035
:104B5000000000000000E007F81F1C380E7006601F
:104B600003E003C003C003C003C003C007E0066343
:104B70000E3F1C3CF83FE0F700C0000000000000C2
:104B8000000000000000FE0FFE1F06380630063051
:104B900006300638FE1FFE0706030606060C06183A
:104BA0000618063006300660000000000000000015
:104BB000000000000000E003F80F1C0C0C180C189B
:104BC0000C001C00F803E00F001E00380630063011
:104BD0000E301C1CF80FE007000000000000000071
:104BE000000000000000FE7FFE7F80018001800148
:104BF00080018001800180018001800180018001AD
:104C000080018001800180010000000000000000A0
:104C10000000000000000C300C300C300C300C3068
:104C20000C300C300C300C300C300C300C300C30A4
:104C30000C301818F81FE00700000000000000000A
:104C400000000000000003600630063006300C183B
:104C50000C180C18180C180C380E3006300670079B
:104C600060036003C001C0010000000000000000FC
:104C70000000000000000360C361C361C3616633CC
:104C8000663366336633663366336C1B6C1B6C1B92
:104C90002C1A3C1E380E380E0000000000000000E8
:104CA0000000000000000FE00C7018303018700C8D
:104CB000600EC00780038003C003E006700C301C48
:104CC00018180C300E6007E0000000000000000023
:104CD00000000000000003C006600C301C383818CB
:104CE000300C6006E007C003800180018001800174
:104CF00080018001800180010000000000000000B0
:104D0000000000000000FC7FFC7F00600030001805
:104D1000000C000600038001C00060003000180095
:104D20000C000600FE7FFE7F000000000000000077
:104D3000000000000000E003E0036000600060008D
:104D40006000600060006000600060006000600063
:104D50006000600060006000600060006000E003D0
:104D6000E0030000000030003000600060006000E0
:104D7000C000C000C000C0018001800180010003AC
:104D80000003000300060006000000000000000011
:104D9000000000000000E003E00300030003000344
:104DA00000030003000300030003000300030003EB
:104DB0000003000300030003000300030003E003FB
:104DC000E003000000000000C001C00160036003B8
:104DD000600330063006180C180C000000000000BC
:104DE00000000000000000000000000000000000C3
:104DF00000000000000000000000000000000000B3
:104E000000000000000000000000000000000000A2
:104E1000000000000000FFFFFFFF00000000000096
:104E20000000000000000C000C000C000C000C0046
:104E30000C00000000000000000000000000000066
:104E40000000000000000000000000000000000062
:104E50000000000000000000000000000000000052
:104E6000F003F8071C0C0C0C000FF00FF80C0C0CE6
:104E70000C0C1C0FF80FF0180000000000000000E0
:104E800000000000000018001800180018001800AA
:104E9000D803F80F380C18181818181818181818FC
:104EA0001818380CF80FD8030000000000000000AC
:104EB00000000000000000000000000000000000F2
:104EC000C003F007300E180C180018001800180066
:104ED000180C300EF007C0030000000000000000B6
:104EE000000000000000001800180018001800184A
:104EF000C01BF01F301C181818181818181818188C
:104F00001818301CF01FC01B00000000000000003B
:104F10000000000000000000000000000000000091
:104F2000C003F00F300C1818F81FF81F18001800F5
:104F30003818301CF00FC00700000000000000000F
:104F4000000000000000800FC00FC000C000C000C3
:104F5000F007F007C000C000C000C000C000C000E3
:104F6000C000C000C000C000000000000000000041
:104F70000000000000000000000000000000000031
:104F8000E00DF80F180E0C0C0C0C0C0C0C0C0C0C8F
:104F90000C0C180EF80FE00D000C0C0C1C06F8079A
:104FA000F001000000001800180018001800180098
:104FB000D807F80F381C18181818181818181818C7
:104FC0001818181818181818000000000000000021
:104FD000000000000000C000C00000000000000051
:104FE000C000C000C000C000C000C000C000C000C1
:104FF000C000C000C000C0000000000000000000B1
:10500000000000000000C000C00000000000000020
:10501000C000C000C000C000C000C000C000C00090
:10502000C000C000C000C000C000C000C000F80048
:105030007800000000000C000C000C000C000C00BC
:105040000C0C0C060C038C01CC006C00FC009C01C9
:105050008C030C030C060C0C000000000000000088
:10506000000000000000C000C000C000C000C00080
:10507000C000C000C000C000C000C000C000C00030
:10508000C000C000C000C000000000000000000020
:105090000000000000000000000000000000000010
:1050A0007C3CFF7EC7E383C183C183C183C183C1CD
:1050B00083C183C183C183C10000000000000000E0
:1050C00000000000000000000000000000000000E0
:1050D0009807F80F381C18181818181818181818E6
:1050E0001818181818181818000000000000000000
:1050F00000000000000000000000000000000000B0
:10510000C003F00F300C18181818181818181818B1
:105110001818300CF00FC003000000000000000061
:10512000000000000000000000000000000000007F
:10513000D803F80F380C1818181818181818181859
:105140001818380CF80FD8031800180018001800A9
:105150001800000000000000000000000000000037
:10516000C01BF01F301C1818181818181818181819
:105170001818301CF01FC01B001800180018001869
:105180000018000000000000000000000000000007
:10519000B007F00370003000300030003000300005
:1051A000300030003000300000000000000000003F
:1051B00000000000000000000000000000000000EF
:1051C000E003F003380E180C3800F003C007000CA1
:1051D000180C380EF007E00300000000000000008B
:1051E00000000000000000008000C000C000C000FF
:1051F000F007F007C000C000C000C000C000C00041
:10520000C000C000C00780070000000000000000D0
:10521000000000000000000000000000000000008E
:1052200018181818181818181818181818181818FE
:105230001818381CF01FE0190000000000000000E2
:10524000000000000000000000000000000000005E
:105250000C18180C180C180C3006300630066003B9
:1052600060036003C001C0010000000000000000F6
:10527000000000000000000000000000000000002E
:10528000C141C141C36163636363636336363636CC
:1052900036361C1C1C1C1C1C0000000000000000FA
:1052A00000000000000000000000000000000000FE
:1052B0001C38381C300C6006600360036003600318
:1052C0006006300C381C1C38000000000000000094
:1052D00000000000000000000000000000000000CE
:1052E0001830301830187018600C600CE00CC006D4
:1052F000C00680038003800380018001C001F000AC
:10530000700000000000000000000000000000002D
:10531000FC1FFC1F000C000600038001C0006000A1
:1053200030001800FC1FFC1F0000000000000000FF
:1053300000000000000000038001C000C000C000A9
:10534000C000C000C000600060003000600040008D
:10535000C000C000C000C000C000C0008001000349
:1053600000000000000080018001800180018001B8
:105370008001800180018001800180018001800125
:105380008001800180018001800180018001800115
:105390008001000000006000C000C00180018001A9
:1053A000800180018001000300030006000300016A
:1053B000800180018001800180018001C0006000C7
:1053C00000000000000000000000000000000000DD
:1053D00000000000F010F81F080F0000000000009F
:1053E00000000000000000000000000000000000BD
:1053F00000000000000000000000000001020304A3
:105400000607080900000000010203042C540008EC
:105410000000002028000000E43C0008545400086C
:105420002800002090050000F43C00080000FFFF69
:10543000000000000000000000000000000000006C
:105440000024F40010000000010000000000000033
:045450000000000058
:04000005080001D915
:00000001FF
