:020000040800F2
:10000000A0260020AD02000843260008CB200008EF
:100010004126000869040008892B00080000000040
:10002000000000000000000000000000ED010008DA
:100030006B0400080000000049020008112A0008B3
:10004000C7020008C7020008C7020008C70200086C
:10005000C7020008C7020008C7020008C70200085C
:10006000C7020008C7020008C7020008C70200084C
:10007000C7020008C7020008C7020008C70200083C
:10008000C702000800000000C7020008C7020008FD
:10009000C7020008C7020008C7020008C70200081C
:1000A000C7020008C7020008C7020008C70200080C
:1000B000C7020008C7020008C7020008C7020008FC
:1000C000C7020008C7020008C7020008C7020008EC
:1000D000C7020008C7020008C7020008C7020008DC
:1000E000C7020008C7020008C7020008C7020008CC
:1000F000C7020008C7020008C7020008000000008D
:1001000000000000C702000800000000C70200084D
:10011000C702000800000000CD2A0008C70200083E
:10012000C7020008C7020008C7020008C70200088B
:10013000C70200080000000000000000C70200081D
:10014000C7020008C702000800000000000000000D
:10015000000000000000000000000000000000009F
:10016000000000000000000000000000C7020008BE
:10017000C7020008000000000000000000000000AE
:1001800000000000C702000800000000000000009E
:10019000000000000000000000000000000000005F
:1001A0000000000000000000C7020008C7020008AD
:1001B000C7020008C7020008C702000800000000CC
:1001C00000000000C702000800000000000000005E
:1001D000C7020008C7020008DFF80CD000F0B2F830
:1001E00000480047752F0008A02600202C4B1968F6
:1001F0000868B0E8F04F80F30988BFF36F8F4FF0C5
:10020000000080F311887047000000000848006873
:10021000006880F308884FF0000080F3148862B60D
:1002200061B6BFF34F8FBFF36F8F00DF00BF00BF1A
:1002300008ED00E0DFF80C00016841F47001016096
:10024000704700BF88ED00E0EFF30980BFF36F8FC8
:10025000134B1A681EF0100F08BF20ED108A20E91A
:10026000F04F106009B44FF0500080F31188BFF3D5
:100270004F8FBFF36F8F03F03FFE4FF0000080F30E
:10028000118809BC19680868B0E8F04F1EF0100F1B
:1002900008BFB0EC108A80F30988BFF36F8F7047F6
:1002A00028000020EFF305807047000006488047D3
:1002B00006480047FEE7FEE7FEE7FEE7FEE7FEE74B
:1002C000FEE7FEE7FEE7FEE7B12A0008D9010008D5
:1002D00040EA01039B0703D009E008C9121F08C0C8
:1002E000042AFAD203E011F8013B00F8013B521E48
:1002F000F9D27047D2B201E000F8012B491EFBD2BF
:1003000070470022F6E710B513460A460446194620
:10031000FFF7F0FF204610BD30B50B460146002028
:100320002022012409E021FA02F59D4205D303FAB7
:1003300002F5491B04FA02F52844151EA2F1010238
:10034000F1DC30BD064C074D06E0E06840F00103EB
:1003500094E8070098471034AC42F6D3FFF740FF0B
:10036000385C0008585C000870B504462068816855
:1003700001F0010100293ED181686FF39E1149B15E
:10038000E06D40F01000E065206E40F00100206656
:10039000012070BD816821F03F0121F0004141F052
:1003A0000101816000F076FE05462068006810F0CB
:1003B000010F20D12068816801F0010139B98168FD
:1003C00021F03F0121F0004141F00101816000F086
:1003D00061FE401B022809D9E06D40F01000E06585
:1003E000206E40F001002066012070BD206800688A
:1003F00010F0010FDED0002070BD0000104C4FF057
:10040000904540F6B8370221284600F035FE0646F2
:100410000421284600F030FE86432670094800F08B
:1004200075FC084800F03CFB80B2A080B84202D2C4
:100430006078401C60700A2002F0FAFDE3E70000DB
:1004400006000020100900200126064C00256078D7
:100450000A2801D9A67000E0A5706570C82002F0D6
:10046000E7FDF4E706000020FEE77047002240F6B3
:10047000B83306E00021491C89B29942FBD3521CD3
:1004800092B28242F6D3704770470000F0B49BB03E
:10049000002390F85820012A19D0012280F8582012
:1004A0000268394C0025B2F1A04F14D00095DDF858
:1004B00000C0BCF1000F10D0DDF800C0DCF808C0AF
:1004C000CCF3800C9268C2F3800282B112E01BB0C0
:1004D0000220F0BC70470094E9E7C16D41F02001B3
:1004E000C16580F858501BB00120F0BC7047BCF1CA
:1004F000000F0AD0C16D41F02001C165012380F8D1
:1005000058501BB01846F0BC7047204A0E684FF098
:10051000A04C16B3966890F8387026F4604646EA08
:1005200047364F683E439660DCF808C00CF0010C7B
:10053000A46804F001045CEA040CE0D1D1F800C026
:1005400089684CEA0101D2F808C02CF01F0C2CF489
:10055000706C41EA0C019160D1E7916821F460412F
:100560009160DCF8081001F00101D4F808C00CF02B
:10057000010C51EA0C01C2D1916821F01F0121F454
:1005800070619160BBE70000000100500003005063
:100590002DE9F80700239C46CDF800C0FE4E90F8E8
:1005A0005820012A12D0012480F85840026895682A
:1005B000C5F3800575B1C16D41F02001C16501230E
:1005C00080F858C01846BDE8F8077047BDE8F8073E
:1005D000022070478D880F6805F4407802EB98126E
:1005E000D2F8308005F01F054FF01F0909FA05F910
:1005F000C7F3846728EA090807FA05F548EA0505FC
:10060000156302689568C5F380059768C7F3C0074E
:100610002F434FF0070540F0FF80D1F80880B8F174
:10062000004F53D00F6807F0007902EBD952D2F88F
:100630001490C7F3045705FA07FA29EA0A0908FAD9
:1006400007F749EA070757610268576927F000472B
:10065000576102684F69D2F80C80C8F3C1084FEAAD
:10066000480807FA08F80F69042F4CD0D1F8009019
:1006700002EB8702176EDFF824A309F0F84907EAB6
:100680000A0749EA080847EA080747F000471766DB
:100690000268D1F810808F6902EB8802D2F860807E
:1006A00028F0807848EA070717660F7F0268D1F8BC
:1006B0001080012F24D0002702EB8802D2F860803E
:1006C00028F0007848EA07071766A5E00F684FF0A2
:1006D000000807F0007902EBD952D2F81490C7F362
:1006E000045705FA07FA29EA0A0908FA07F749EA56
:1006F000070757610268576947F000475761A8E745
:100700004FF00077D8E702F160073F6800277F03CA
:100710007F0B7CD002F160073F6807F0F84797FA3B
:10072000A7F7B7FA87F80F68C7F31209B9F1000FF6
:100730006ED097FAA7F7B7FA87F7B84503D1176EC7
:1007400027F0004717660268121D02F160073F6834
:1007500000277F037F0B71D002F160073F6807F02D
:10076000F84797FAA7F7B7FA87F80F68C7F312099F
:10077000B9F1000F6AD097FAA7F7B7FA87F7B8452B
:1007800003D1176E27F0004717660268083202F19E
:1007900060073F6800277F037F0B5AD002F1600794
:1007A0003F6807F0F84797FAA7F7B7FA87F80F6896
:1007B000C7F31209B9F1000F53D097FAA7F7B7FAA8
:1007C00087F7B84503D1176E27F000471766026810
:1007D0000C3202F160073F6800277F037F0B43D094
:1007E00002F160073F6807F0F84797FAA7F7B7FAF2
:1007F00087F80F68C7F31209B9F1000F3CD097FAD8
:10080000A7F7B7FA87F7B84506D1176E01E009E0F8
:1008100010E027F0004717660268976807F00107A5
:100820006FB3D1E002F160073F6807F0F8474FEA85
:10083000976878E7C7F384677FE7FFE702F160070F
:100840003F6807F0F8474FEA97688EE7C7F3846779
:1008500095E702F160073F6807F0F8474FEA9768AD
:10086000A5E7C7F38467ACE702F160073F6807F0CC
:10087000F8474FEA9768BCE7C7F38467C3E791F886
:100880000C800F68D2F8B090C7F3120A29EA0A095F
:10089000DFF80CA108F018082AFA08F808EA070798
:1008A00049EA0707C2F8B070CA68B2427AD10A684A
:1008B000076812EA0A061AD092FAA2F6B6FA86F683
:1008C000761C06F01F06092E32D8C2F31206002E3F
:1008D00010D092FAA2F6B6FA86F606F1010606F0F4
:1008E0001F0604FA06F608D1C2F3846409E0C2F3D5
:1008F0008466E5E7C2F38466EFE792FAA2F4B4FAFD
:1009000084F404F1010404F01F0446EA846402D173
:10091000C2F3846203E092FAA2F2B2FA82F202F126
:10092000010202F01F0202EB420244EA025432E0EA
:10093000C2F31206002E0DD092FAA2F6B6FA86F68F
:1009400006F1010606F01F0604FA06F605D1C2F309
:10095000846406E0C2F38466F2E792FAA2F4B4FA81
:1009600084F404F1010404F01F0446EA846402D113
:10097000C2F3846203E092FAA2F2B2FA82F202F1C6
:10098000010202F01F02A2F10A0202EB420244EA53
:10099000025242F0007406E000007F4000F0FF03C6
:1009A000FFFF070010E08E6804F0007207EBD252E0
:1009B0005769C4F3045405FA04F527EA050506FA55
:1009C00004F445EA040454610A682F490A423FF4DA
:1009D000F7AD2E4CA16801F0E07102F1705515F5EC
:1009E0005F0502D02A4DAA4202D111F4000F1ED099
:1009F000284D02F1605616F52E0602D111F0807FC7
:100A000035D002F1505616F5F8067FF4D9AD11F441
:100A1000800F7FF4D5AD0268AA423FF4D1AD41F416
:100A20008001A26822F0E0721143A160C8E502686B
:100A3000B2F1A04F7FF4C4AD41F40001A26822F0EE
:100A4000E0721143A1601449144A0968B1FBF2F144
:100A500001EB410189000091009900293FF4B0ADFC
:100A60000099491E009100990029F9D1A8E5026872
:100A7000AA423FF4A5AD41F08071A26822F0E07275
:100A80001143A1609CE500000000088000030050B5
:100A90001000C0900001005018000020400D03001D
:100AA0000068006C70470000F8B504460025002679
:100AB0000096002C02D0E06D10B107E00120F8BDD7
:100AC000204600F0F7F8266684F8586020688168B0
:100AD000C1F3407129B1816821F03F0121F020412B
:100AE000816020688168C1F30071A9B9816821F033
:100AF0003F0121F0004141F080518160684869491F
:100B00000068B0FBF1F00090009828B10098401EFA
:100B1000009000980028F9D120688168C1F3007125
:100B200041B9E16D41F01001E165216E41F0010133
:100B3000216601258168C1F38001E26D12F0100F7A
:100B400000D131B1E06D40F01000E065012528468C
:100B5000F8BDE16D21F4807141F00201E16580682A
:100B600000F0010088B94FF0A040806800F001005B
:100B70004D49896801F00101084306D160684B497D
:100B80008A6822F47C1210438860E168E06B627F1F
:100B90000843A16841EA4231084394F8241040EA2E
:100BA0000140012903D1218D491E40EA4140E16AFB
:100BB00021B101F47871226B084310432168CA689F
:100BC0003B4B1A401043C86020680169626B21F0FA
:100BD00040611143016120688168C1F3800182682E
:100BE000C2F3C002114332D1217F94F83820890327
:100BF00041EA4201C26822F0020222F4804211431B
:100C0000C160206970B12068016941F480310161DF
:100C10002068D0F8C01022696FF30D011143C0F8AD
:100C2000C0100BE02068016921F480310161206867
:100C3000D0F8C0106FF30D01C0F8C01094F8400058
:100C4000012813D02068016921F001010161606968
:100C500001281CD02068016B21F00F010163E06DB9
:100C600020F0020040F00100E06570E7A16C606CCC
:100C7000226D0843E16C114340EA010220680169DA
:100C80006FF38A01114341F001010161DFE7206840
:100C9000016B226A21F00F01521E11430163DEE74E
:100CA00018000020400D0300000100500003005018
:100CB0000740F0FF10B586B0044614216846FFF7E0
:100CC00020FB2068B0F1A04F1BD10F48C16C41F44C
:100CD0000051C164C16C01F400510591C16C41F037
:100CE0000101C164C06C694600F001000590082054
:100CF000009003200190002002904FF0904000F0FF
:100D00009BF806B010BD00000010024070B504460C
:100D10003D48806800F01F0520688068C0F38000AF
:100D2000002802D00222104670BD94F85800012815
:100D30000DD0012084F858002046FFF715FB02462D
:100D400010004FF0000C04D084F858C0EBE70220EC
:100D500070BDE06D20F0010020F4606040F4807010
:100D6000E0652A4B2068984202D14FF0A04100E094
:100D70000146814200D01DB9E16D21F48011E16589
:100D8000E16D11F4805F04D0216E21F0060121662F
:100D900001E0C4F860C01C21016084F858C02068DC
:100DA000984202D14FF0A04100E00146814217D0A5
:100DB000B5B1052D14D0092D12D0E16D41F480118B
:100DC000E165984201D14FF0A040C06810F0007F6B
:100DD000A9D0E06D20F4005040F48050E065A2E717
:100DE000C16811F0007F05D0E16D21F4005141F49C
:100DF0008051E165816821F03F0121F0004141F01F
:100E0000040181608FE700000003005000010050E2
:100E100070B5044600F03EF90546B4F1FF3F02D03C
:100E200004484068044400F035F9401BA042FAD35E
:100E300070BD00001C0000202DE9F84F00220B6857
:100E4000002B7CD00324874E874F0F250123D1F838
:100E500000C003FA02F80CEA0803002B70D0D1F8A6
:100E600004C0BCF1010F08D0BCF1020F05D0BCF1E9
:100E7000110F02D0BCF1120F1DD1D0F808904FEA2B
:100E8000420C04FA0CFA29EA0A09D1F80CA00AFA71
:100E90000CFC4CEA090CC0F808C0D0F804C02CEADD
:100EA000080C91F80480C8F3001808FA02F848EA20
:100EB0000C0CC0F804C0D0F80C804FEA420C04FAC5
:100EC0000CFA28EA0A08D1F8089009FA0CF949EA5C
:100ED0000808C0F80C80D1F80480B8F1020F02D0E5
:100EE000B8F1120F15D14FEAD20800EB8808D8F8F4
:100EF00020B04FEA42794FEAD96905FA09FE2BEA98
:100F00000E0BD1F810E00EFA09F949EA0B09C8F8FE
:100F10002090D0F8008028EA0A0891F8049009F09F
:100F2000030909FA0CFC4CEA080CC0F800C0D1F81F
:100F300004C01CF0805F7CD0D6F860C001E07DE08A
:100F400077E04CF0010CC6F860C0D6F860C00CF039
:100F5000010CCDF800C022F0030C0CF1804909F51A
:100F60008039D9F808C04FEA82784FEA187805FA34
:100F700008FA2CEA0A0AB0F1904F64D0A0F1904C24
:100F8000BCF5806C5CD0A0F1904CBCF5006C5DD0E1
:100F9000A0F1904CBCF5406C5BD0A0F1904CBCF53E
:100FA000805C59D0A0F1904CBCF5A05C57D04FF0BC
:100FB000060C0CFA08FC4CEA0A0CC9F808C0D7F871
:100FC00000C02CEA030CD1F8048018F4803F01D053
:100FD0004CEA030CC7F800C0DFF89080D8F800C0D6
:100FE0002CEA030CD1F8049019F4003F01D04CEA2C
:100FF000030CC8F800C0DFF87880D8F800C02CEAED
:10100000030CD1F8049019F4801F01D04CEA030CB2
:10101000C8F800C0DFF85C80D8F800C02CEA030CE8
:10102000D1F8049019F4001F01D04CEA030CC8F861
:1010300000C0521C0B68D3407FF408AFBDE8F88FA6
:101040004FF0010CB5E74FF0000CB2E74FF0020C87
:10105000AFE74FF0030CACE74FF0040CA9E74FF0FB
:10106000050CA6E700100240000401400404014002
:10107000080401400C0401400069084201D001202D
:10108000704700207047002A01D08161704781625B
:101090007047000001488068704700001C00002075
:1010A0000248816842681144816070471C0000203A
:1010B00010B50024032000F0A9F8002000F008F883
:1010C00008B1012401E000F03DF8204610BD000009
:1010D00000B5014687B00022362000F063F83620C4
:1010E00000F052F81348816D41F010018165806D68
:1010F00005A900F010000690684600F075FB00F0AE
:1011000097FB0D490D4AB0FBF1F10D48491E0260F5
:10111000416040F2E7320021C0E90321816000F024
:101120006EFE10B1012007B000BD054800F09AFE28
:10113000F9E700000010024040420F00001000409C
:101140007C0900200E4808B5016E41F001010166DE
:10115000016E01F001010091816D41F080518165C6
:10116000806D002200F0805000900F21901E00F052
:1011700019F80448816841F48041816008BD00008D
:10118000001002400070004000280ADB00F01F0140
:10119000012202FA01F14009800000F1E020C0F8CC
:1011A0000011704710B4184B1B68C3F30223C3F13E
:1011B000070CBCF1040F01D94FF0040C1C1D072CC7
:1011C00001D2002300E0DB1E012404FA0CFCACF188
:1011D000010C0CEA0101994004FA03F35B1E1A406A
:1011E0001143002806DB00F1E020090180F800141B
:1011F00010BC704700F00F0000F1E020090180F8FA
:10120000141D10BC704700000CED00E000F007005A
:10121000064A11684FF6FF03194041EA002040F0EA
:10122000FD7040F080601060704700000CED00E041
:1012300033493222334B09684A43334900280AD0E4
:10124000B0F5007F31D0086820F4C06040F48060C1
:10125000086000207047086800F4C060B0F5806F37
:1012600006D0D1F8800020F48070C1F88000F0E74B
:10127000D1F8800020F48070C1F88000086820F464
:10128000C06040F400700860B2FBF3F0401C00E066
:10129000401E4A6912F4806F01D00028F8D14869D5
:1012A00010F4806FD5D003207047086800F4C06048
:1012B000B0F5806F06D0D1F8800040F48070C1F89E
:1012C0008000C6E7D1F8800040F48070C1F880004B
:1012D000086820F4C06040F400700860B2FBF3F0CE
:1012E000401C00E0401E4A6912F4806F01D00028C3
:1012F000F8D1486910F4806FABD00320704700002C
:101300001800002040420F00007000402DE9F84F07
:101310000446002500272068B04E10F4002F76D038
:10132000A846B06D10F0805F09D1B06D40F08050DC
:10133000B065B06D00F0805000904FF00108DFF80C
:10134000A0A2DAF8000040F48070CAF80000FFF7AD
:10135000A1FE8146DAF8000010F4807F0CD1FFF77F
:1013600099FEA0EB0900022801D9032504E0DAF870
:10137000000010F4807FF2D025B12F46B8F1010FA4
:1013800041D044E0D6F8900000F44070A0B1216C48
:10139000814211D0D6F8900020F44070D6F8901019
:1013A00041F48031C6F89010D6F8901021F48031C5
:1013B000C6F89010C6F8900010F0010F16D0FFF795
:1013C00069FE8146D6F8900010F0020F0ED141F26E
:1013D000883AFFF75FFEA0EB0900504501D90325CD
:1013E00004E0D6F8900010F0020FF2D00DB12F46B5
:1013F000C4E7D6F89000216C20F440700843C6F88A
:101400009000BBE703E0B06D20F08050B06520781D
:1014100010F0010F07D0D6F88800616820F00300B3
:101420000843C6F88800207810F0020F07D0D6F8DD
:101430008800A16820F00C000843C6F888002078D6
:1014400010F0040F07D0D6F88800E16820F03000D3
:101450000843C6F88800207810F0080F07D0D6F8A7
:101460008800216920F0C0000843C6F88800207871
:1014700010F0200F07D0D6F88800616920F4406092
:101480000843C6F88800207810F0400F07D0D6F83F
:101490008800A16920F440500843C6F888002078ED
:1014A00010F0800F07D0D6F88800E16920F44040A2
:1014B0000843C6F88800208810F4807F07D0D6F84B
:1014C0008800216A20F440300843C6F8880020884C
:1014D00010F4007F07D0D6F88800616A20F440201D
:1014E0000843C6F88800208810F4806F0FD0D6F823
:1014F0008800A16A20F440100843C6F88800A06A5A
:10150000B0F5801F03D1F06840F48010F0602088AF
:1015100010F4006F0FD0D6F88800E16A20F4400084
:101520000843C6F88800E06AB0F5800F03D1F06880
:1015300040F48010F060208810F4805F0FD0D6F85F
:101540008800216B20F040700843C6F88800206BAB
:10155000B0F1807F03D1F06840F48010F060208803
:1015600010F4005F0FD0D6F88800616B20F0406067
:101570000843C6F88800606BB0F1006F03D1F068D3
:1015800040F48010F060208810F4804F0FD0D6F81F
:101590008800A16B20F040600843C6F88800A06B6B
:1015A000B0F1006F03D1F06840F48010F060208843
:1015B00010F4004F0FD0D6F88800E16B20F04050B7
:1015C0000843C6F88800E06BB0F1805F03D1F06893
:1015D00040F48030F0603846BDE8F88F00100240DB
:1015E000007000402DE9F04704460D460027002C0E
:1015F00017D0DFF8DC91D9F8000000F00F00A84206
:1016000012D2D9F8000020F00F002843C9F80000DA
:10161000D9F8000000F00F00A84205D00120BDE875
:10162000F0870120BDE8F08720786A4E10F0010FA6
:1016300041F2883A5ED06068DFF89C81032806D0CA
:10164000022822D0306810F4806F49D021E0306841
:1016500010F0007F0ED000F0F5FF404524D9B068AF
:1016600010F0F00F09D0207810F0020F1CD0A06805
:1016700018B119E00120BDE8F087B06820F0F00053
:1016800040F08000B06080270EE0306810F4003F2A
:1016900023D000F0DFF8404506D9B06820F0F00014
:1016A00040F08000B0608027B068616820F00300DF
:1016B0000843B060FFF7EEFC8046B068616800F058
:1016C0000C00B0EB810F15D0FFF7E4FCA0EB080095
:1016D000504508D90320BDE8F0870120BDE8F08718
:1016E0000120BDE8F087B068616800F00C00B0EB45
:1016F000810FE9D1206810F0020F17D010F0040F0D
:1017000003D0B06840F4E060B060207810F0080FBB
:1017100005D0B06820F4605040F4E060B060B0687C
:10172000A16820F0F0000843B06005E0802F03D1ED
:10173000B06820F0F000B060D9F8000000F00F00B1
:10174000A8421DD9D9F8000020F00F002843C9F89D
:101750000000FFF79FFC0746D9F8000000F00F00DB
:10176000A8420DD0FFF796FCC01B504502D90320BC
:10177000BDE8F087D9F8000000F00F00A842F1D1D1
:10178000207810F0040F05D0B068E16820F4E06024
:101790000843B060207810F0080F06D0B0682169C7
:1017A00020F4605040EAC100B06000F053F8B16826
:1017B0000A4AC1F30311515C01F01F01C8400849F6
:1017C000086008480068BDE8F047FFF781BC0000EA
:1017D000002002400010024000B4C404F85B00087E
:1017E000180000201C0000200F2202600B4A9368A2
:1017F00003F003034360936803F0F003836093688E
:1018000003F4E063C360926802F46052D20802619C
:101810000348006800F00F000860704700100240A5
:1018200000200240014800687047000018000020B6
:1018300000B5FFF7F7FF05498968054AC1F30221A2
:10184000515C01F01F01C84000BD000000100240C3
:10185000085C00081A4A9068DFF868C000F00C00C5
:1018600004280CD0906800F00C011748082905D016
:1018700091680C2333EA010103D0002070476046D1
:101880007047D16801F00303D168C1F30311491C0B
:10189000032B0DD0BCFBF1F0D168C1F30621484306
:1018A000D168C1F34161491C4900B0FBF1F07047B8
:1018B000B0FBF1F0D168C1F306214843F0E7000026
:1018C000001002400024F40000366E012DE9F843B8
:1018D0000446002C0ED02078FD4F10F0010F60D090
:1018E000B8683D4600F00C00E96801F003010C28DF
:1018F00003D004E00120BDE8F88303291AD00828AA
:1019000018D06068B0F5803F1DD0B0F5A02F1FD073
:10191000286820F480302860286820F4802028601F
:10192000606858B3FFF7B6FB0646286810F4003F1E
:1019300017D036E0286810F4003F32D0606880BBD2
:101940000120BDE8F883286840F480302860E7E78C
:10195000286840F480202860286840F4803028609F
:10196000DEE7FFF797FB801B642802D90320BDE860
:10197000F883286810F4003FF3D012E0FFF78AFBE9
:101980000646286810F4003F0BD0FFF783FB801B4E
:10199000642802D90320BDE8F883286810F4003FCA
:1019A000F3D1207810F0020F5ED0B8683D4600F009
:1019B0000C00E96801F003010C2801D102290FD0C5
:1019C00004280DD0E068B8B3286840F4807028601F
:1019D000FFF760FB0646286810F4806F18D023E0FC
:1019E000286810F4806F01D0E06870B16868217CCD
:1019F00020F0FE4040EA01606860B6480068FFF7EA
:101A000067FB88B30120BDE8F8830120BDE8F883B7
:101A1000FFF740FB801B022802D90320BDE8F883B2
:101A2000286810F4806FF3D06868217C20F0FE40B5
:101A300040EA0160686017E0FFE7286820F48070E2
:101A40002860FFF727FB0646286810F4806F0BD04C
:101A5000FFF720FB801B022802D90320BDE8F88392
:101A6000286810F4806FF3D1207810F0080F3AD076
:101A70006069E0B1D7F894003D4640F00100C7F836
:101A80009400FFF707FB0646D5F8940010F0020F0C
:101A900029D1FFF7FFFA801B022802D90320BDE8F5
:101AA000F883D5F8940010F0020FF2D01BE0D7F8BD
:101AB00094003D4620F00100C7F89400FFF7EAFAD1
:101AC0000646D5F8940010F0020F0CD0FFF7E2FAAA
:101AD000801B022802D90320BDE8F883D5F89400C2
:101AE00010F0020FF2D1207810F0040F7BD04FF0ED
:101AF0000008B86D10F0805F09D1B86D40F08050DB
:101B0000B865B86D00F0805000904FF00108724D3C
:101B1000286810F4807F16D1286840F4807028600F
:101B2000FFF7B8FA0646286810F4807F0BD1FFF75C
:101B3000B1FA801B022802D90320BDE8F883286887
:101B400010F4807FF3D0A06801281AD005281FD098
:101B5000D7F8900020F00100C7F89000D7F8900067
:101B600020F00400C7F89000A06841F2883650B316
:101B7000FFF790FA0546D7F8900010F0020F14D046
:101B800037E0D7F8900040F00100C7F89000EBE78D
:101B9000D7F8900040F00400C7F89000D7F8900004
:101BA00040F00100C7F89000DEE7FFF773FA401B32
:101BB000B04202D90320BDE8F883D7F8900010F0B6
:101BC000020FF2D015E0FFF765FA0546D7F890004E
:101BD00010F0020F0DD0FFF75DFA401BB04203D9A1
:101BE0000320BDE8F8830BE0D7F8900010F0020F57
:101BF000F1D1B8F1010F03D1B86D20F08050B86574
:101C0000207810F0200F3AD0A069E0B1D7F8980002
:101C10003D4640F00100C7F89800FFF73BFA064642
:101C2000D5F8980010F0020F29D1FFF733FA801B86
:101C3000022802D90320BDE8F883D5F8980010F0F7
:101C4000020FF2D01BE0D7F898003D4620F00100CB
:101C5000C7F89800FFF71EFA0646D5F8980010F06E
:101C6000020F0CD0FFF716FA801B022802D90320BE
:101C7000BDE8F883D5F8980010F0020FF2D1E069C2
:101C800060B3B9683D460C2232EA01014FF0FF38DB
:101C900078D0022823D0286820F080702860E86877
:101CA00020F00300E860E86820F4881020F08070DD
:101CB000E860FFF7EFF90446286810F0007F0DD0C8
:101CC000FFF7E8F9001B022857D90320BDE8F88385
:101CD000001002401C0000200070004083E02868D3
:101CE00020F080702860FFF7D5F90646286810F0CC
:101CF000007F0AD0FFF7CEF9801B022801D903200C
:101D0000E4E7286810F0007FF4D1616A206A491E78
:101D100040EA0110A16A228E090208EB520241EA50
:101D20004251084394F8341008EB510140EA4160F5
:101D300094F82C1040EAC160E9682C4A114008432D
:101D4000E860286840F080702860E86840F08070A3
:101D5000E860FFF79FF90446286810F0007F42D141
:101D6000FFF798F9001B022801D90320AEE7286885
:101D700010F0007FF4D036E004E0286810F0007F17
:101D80009ED130E001282CD0E868226A00F00301DF
:101D9000914224D1626A00F0F001521EB1EB021FA1
:101DA0001DD1A26A00F4FE41B1EB022F17D194F8C5
:101DB0002C1000F07842B2EBC16F10D1228E00F4EB
:101DC000C00108EB5202B1EB425F08D194F8341025
:101DD00000F0C06008EB5101B0EB416F03D001206F
:101DE00074E7012072E7002070E700000C809F017B
:101DF000704770477047704770477047704710B51D
:101E00000446002C03D094F83D0010B107E00120F7
:101E100010BD002084F83C00204600F022F802208B
:101E200084F83D00211D206800F056FE012084F852
:101E3000480084F83E0084F83F0084F8400084F8AD
:101E4000410084F8420084F8430084F8440084F898
:101E5000450084F8460084F8470084F83D000020DF
:101E600010BD704790F83D10012901D00120704746
:101E7000022180F83D100168CA6842F00102CA6080
:101E800001688868064A1040062806D0B0F5803FF1
:101E900003D0086840F0010008600020704700008F
:101EA00007000100704770B50446206801694FF0D3
:101EB000000511F0020F17D0C16811F0020F13D006
:101EC000E91E0161012020772068806910F0030F6E
:101ED00003D02046FFF7E6FF05E0204600F0E8F8D3
:101EE000204600F0E6F825772068016911F0040F1C
:101EF00018D0C16811F0040F14D06FF00401016113
:101F0000022020772068806910F4407F03D02046AB
:101F1000FFF7C8FF05E0204600F0CAF8204600F0B1
:101F2000C8F825772068016911F0080F18D0C1683A
:101F300011F0080F14D06FF0080101610420207720
:101F40002068C06910F0030F03D02046FFF7AAFFF6
:101F500005E0204600F0ACF8204600F0AAF825770E
:101F60002068016911F0100F18D0C16811F0100F2E
:101F700014D06FF010010161082020772068C0693B
:101F800010F4407F03D02046FFF78CFF05E0204689
:101F900000F08EF8204600F08CF825772068016963
:101FA00011F0010F09D0C16811F0010F05D06FF0D9
:101FB00001010161204600F07DF82068016911F0FF
:101FC000800F09D0C16811F0800F05D06FF080013B
:101FD00001612046FFF70DFF2068016911F4807F41
:101FE00009D0C16811F0800F05D06FF480710161D4
:101FF0002046FFF7FDFE2068016911F0400F09D06F
:10200000C16811F0400F05D06FF04001016120461A
:1020100000F05AF82068016911F0200F09D0C1685A
:1020200011F0200F05D06FF0200101612046FFF76D
:10203000E1FE2068016911F4801F09D0C16811F424
:10204000801F05D06FF4801101612046FFF7D4FE98
:102050002068016911F4001F09D0C16811F4001F44
:1020600005D06FF4001101612046FFF7C4FE20681F
:10207000016911F4800F09D0C16811F4800F05D0F7
:102080006FF4800101612046FFF7B7FE2068016907
:1020900011F4000F0BD0C16811F4000F07D06FF4DA
:1020A000000101612046BDE87040FFF7A7BE70BD8A
:1020B0007047704700680349884201D1FEF7F0BFBE
:1020C00070470000001000407047FEE700B585B083
:1020D00014216846FEF715F94FF6FF7000900020B6
:1020E0000321CDE90201019069460248FEF7A4FEF2
:1020F00005B000BD0008004800B585B01421684651
:10210000FEF7FFF84FF6FF700090012001900320CA
:1021100003900020029069460248FEF78DFE05B04C
:1021200000BD00000008004830B587B014216846A3
:10213000FEF7E7F81E48C16C41F00401C164C16CB0
:1021400001F004010591C16C41F00101C164C16C51
:1021500001F001010591C16C41F00201C164C06C44
:10216000012500F0020005904FF44870CDE900050C
:1021700000240394694602940E48FEF75DFE28028F
:1021800003940090CDE901544FF0904469462046F5
:10219000FEF752FEFFF7B0FFA06940F48070A06127
:1021A00004481830016841F40871016007B030BD7F
:1021B0000010024000040048203AD2B2034B02EB68
:1021C000420203EB021200F019B80000BC490008FB
:1021D000F0B50E460746002540F23F1407E02146C1
:1021E0003846FFF7E9FF103C6D1CA4B2761C32782C
:1021F000002A01D0142DF2D3F0BD00002DE9F047E4
:1022000091468A460026044600F086F8DFF84080B2
:10221000012700BF00F0C0F85FF0000539F8160094
:1022200007FA05F10842404601D1408800E00088E5
:1022300000F086F86D1C102DF0D3641CE4B25146FA
:10224000204600F069F8761C182EE3D3BDE8F0872D
:102250000000002010B5FFF767FF002000F014F821
:10226000084CA080A088A0F50241303906D000F0CB
:102270009AFA002000F008F8A08010BD00F00AFAD9
:10228000F7E700000000002070B51D490A6842F41D
:1022900000720A600A6842F480720A60184C103CAE
:1022A000226842F020022260164A1060086840F05E
:1022B0002000086000BF00BF00BF206840F0200081
:1022C0002060206840F480702060FFF7FFFE4FF030
:1022D0009041886A40F48070886200BF00BF00BFF0
:1022E0000848001F006885B2886940F480708861E2
:1022F000FFF702FF206840F400702060284670BDA0
:10230000280400481408004801B5BDF80000014940
:10231000488008BD0000002010B50C460146202072
:1023200000F068F82146BDE81040212000F062B8B6
:1023300001B5BDF800000149088008BD000000207B
:10234000134A116841F400711160114910390B688A
:1023500043F480730B600B6843F020030B600D4B5C
:102360001860106840F02000106000BF00BF00BF80
:10237000086840F020000860086840F48070086039
:1023800000BF00BF00BF086840F4007008607047DD
:1023900028040048140800481449086840F40070F4
:1023A0000860086840F480700860104810380268BF
:1023B00042F0200202600E4B22221A600A6842F0AC
:1023C00020020A6000BF00BF00BF016841F0200189
:1023D0000160016841F48071016000BF00BF00BF6F
:1023E000016841F400710160704700002804004852
:1023F00014080048184B10B51A6842F400721A60AD
:102400001A6842F480721A60134A103A146844F051
:1024100020041460114C2060186840F020001860FF
:1024200000BF00BF00BF106840F0200010601068BF
:1024300040F4807010602160186840F0200018603F
:1024400000BF00BF00BF106840F02000106010689F
:1024500040F48070106010BD280400481408004843
:1024600030B58BB0002408940994202168460A9462
:10247000FDF747FF1B484FF0A0410425C0E90014B9
:102480008460C4600461C0E9054504774477012194
:10249000016280F82440C462046380F83840C46359
:1024A00080F84040FEF700FB08B1FDF7EDFF08A9FA
:1024B0000C480894FDF7EAFF08B1FDF7E5FF0A486C
:1024C00000900620CDE901047F200594CDE90305A5
:1024D00069460448FEF75CF8002801D0FDF7D4FFF8
:1024E0000BB030BD100900201000C01010B50B4A11
:1024F00000210B4800F0F4FD0A4C084A002120603E
:102500002432094800F0ECFD044A606048320021A2
:10251000064800F0E5FDA06010BD00008C5B0008DF
:10252000FD0300080C000020A92900084904000848
:102530002DE9F04F87B014216846FDF7E2FE3C48D4
:10254000C16C41F00401C164C16C01F0040105914A
:10255000C16C41F02001C164C16C01F02001059102
:10256000C16C41F00101C164C16C01F00101059130
:10257000C16C41F00801C164C16C01F00801059112
:10258000C16C41F00201C164C06CDFF8A88000F0AA
:1025900002004FF6FF740590002221464046FEF7E8
:1025A00072FD4FF480764FF0904900223146484644
:1025B000FEF769FDDFF880A0002204215046FEF7F7
:1025C00062FDDFF878B04FF448770022394658466C
:1025D000FEF759FD0125CDE9004500240294694626
:1025E00040460394FEF728FC0620CDE90004694626
:1025F00048460294FEF720FC0096CDE90154694656
:1026000048460394FEF718FC04200090CDE90154DD
:10261000694650460394FEF70FFC0097CDE901543C
:10262000694658460394FEF707FC07B0BDE8F08FF3
:102630000010024000080048000C00480004004858
:10264000FEE770471049C86800F00302C868C0F38D
:102650000310401C032A0ED00C4AB2FBF0F0CA68EB
:10266000C2F306225043C968C1F34161491C4900C5
:10267000B0FBF1F07047064AB2FBF0F0CA68C2F353
:1026800006225043EFE70000001002400024F4004F
:1026900000366E0130B501210020FFF7ABFE4FF48C
:1026A0007A70FDF7E3FE00210120FFF7A3FE41F25F
:1026B00090711020FFF79EFE4FF41C516020FFF731
:1026C00099FE01216120FFF795FE02214620FFF7C8
:1026D00091FE48F210011320FFF78CFE48F2FE0134
:1026E0001220FFF787FE4FF4A0610220FFF782FE61
:1026F00041F230010320FFF77DFE40F20334214612
:102700003020FFF777FE21463120FFF773FE214688
:102710003220FFF76FFEE51E29463320FFF76AFEE1
:1027200003213420FFF766FE21463520FFF762FEC5
:1027300014213620FFF75EFE21463720FFF75AFEB0
:1027400021463820FFF756FE21463920FFF752FE7A
:1027500029463A20FFF74EFE03213B20FFF74AFEB1
:1027600021463C20FFF746FE4FF4A0513D20FFF7E5
:1027700041FE4FF400719220FFF73CFE214693206A
:10278000FFF738FE40F60D019020FFF733FE41F2CF
:1027900018010320FFF72EFEBDE8304040F2731110
:1027A0000720FFF727BE10B543F20801E320FFF72B
:1027B00021FE1221E720FFF71DFE41F23121EF201B
:1027C000FFF718FE00210120FFF714FE4FF4E0612F
:1027D0000220FFF70FFE41F230010320FFF70AFE4F
:1027E00000210420FFF706FE40F207210820FFF732
:1027F00001FE00210920FFF7FDFD00210A20FFF75F
:10280000F9FD00210C20FFF7F5FD00210D20FFF759
:10281000F1FD00210F20FFF7EDFD00211020FFF753
:10282000E9FD07211120FFF7E5FD00211220FFF748
:10283000E1FD00211320FFF7DDFDC820FEF7E8FAD7
:1028400041F290611020FFF7D5FD40F227211120C1
:10285000FFF7D0FD3220FEF7DBFA1D211220FFF733
:10286000C9FD3220FEF7D4FA4FF400611320FFF7C0
:10287000C1FD14212920FFF7BDFD0B212B20FFF7FF
:10288000B9FD3220FEF7C4FA00212020FFF7B2FD87
:1028900000212120FFF7AEFD07213020FFF7AAFD20
:1028A00040F207713120FFF7A5FD06213220FFF726
:1028B000A1FD40F204713520FFF79CFD41F6047143
:1028C0003620FFF797FD04213720FFF793FD002105
:1028D0003820FFF78FFD40F206713920FFF78AFD9F
:1028E00040F201713C20FFF785FD0F213D20FFF7ED
:1028F00081FD00215020FFF77DFDEF215120FFF7E2
:1029000079FD00215220FFF775FD40F23F11532061
:10291000FFF770FD4FF41C516020FFF76BFD0121A4
:102920006120FFF767FD00216A20FFF763FD0021AA
:102930008020FFF75FFD00218120FFF75BFD002174
:102940008220FFF757FD00218320FFF753FD002170
:102950008420FFF74FFD00218520FFF74BFD10215C
:102960009020FFF747FD00219220FFF743FD032150
:102970009320FFF73FFD4FF488719520FFF73AFD54
:1029800000219720FFF736FD00219820FFF732FD48
:1029900041F218010320FFF72DFDBDE8104040F281
:1029A00073110720FFF726BD0B4C22780BA11148AD
:1029B00000F0ECF80F491820FFF70AFCA2780EA1EE
:1029C0000C4800F0E3F80B493020FFF701FC3220FF
:1029D00000F02EFBE9E7000006000020626F64793A
:1029E000696E666F3A253164202020202020202047
:1029F00020200000A000002066697265696E666F85
:102A00003A25316420202020202020202020000092
:102A100010B5502080F31188BFF34F8FBFF36F8F35
:102A200001F016FE18B104494FF0805008600020F4
:102A300080F3118810BD000004ED00E000B5A5B0E2
:102A400038216846FDF75DFC14211FA8FDF759FCED
:102A500044210EA8FDF755FC4FF40070FEF7E8FB8B
:102A60000220C10103914021049100900790089039
:102A70001421CDE909010B900C900D906846FEF7EA
:102A800025FF0F201F9003202090002021902290EE
:102A9000239003211FA8FEF7A5FD4FF400400E90E0
:102AA00080031D900EA8FEF731FC25B000BD00008C
:102AB0000548016841F47001016003494FF000606E
:102AC000803908607047000088ED00E00148FFF79A
:102AD000EAB900007C0900202DE9F0010268234CCE
:102AE000234BDFF89080DFF890C0A04208D0B0F10F
:102AF000804F05D0984203D0404501D0604503D1B6
:102B000022F070024D682A431C4D1D4E1D4FA042FD
:102B10000ED0B0F1804F0BD0984209D0404507D07D
:102B2000604505D0A84203D0B04201D0B84203D1DD
:102B300022F44072CB681A434B6922F080021A4398
:102B400002608A68C2620A688262A04207D0604559
:102B500005D0A84203D0B04201D0B84201D10969E2
:102B6000016301214161BDE8F0017047002C014083
:102B700000040040000800400034014000400140D3
:102B80000044014000480140FEE700000FB4084B3C
:102B900010B504A902AA039800F01CF8044602A983
:102BA000002000F0B8F9204610BC5DF814FB0000CE
:102BB000172F000802E008C8121F08C1002AFAD126
:102BC00070477047002001E001C1121F002AFBD1AD
:102BD000704700002DE9FF4F8BB088460546002660
:102BE00006E025280BD0DDE90D1290476D1C761C00
:102BF00028780028F5D10FB03046BDE8F08F0024CA
:102C0000A146A2460122AE4900E0044315F8013F67
:102C1000203B02FA03F00842F7D128782A2810D086
:102C20006FF02F022878A0F13001092915D809EB9F
:102C3000890102EB410144F0020400EB01096D1C23
:102C4000F0E758F8041B5FEA010903D544F4005487
:102C5000C9F1000944F002046D1C28782E2817D110
:102C600015F8010F44F004042A280ED06FF02F024B
:102C70002878A0F1300109290AD80AEB8A0102EB71
:102C8000410100EB010A6D1CF2E758F804AB6D1C22
:102C900028786C280FD006DC4C2817D068280DD077
:102CA0006A2814D104E0742810D07A280FD10DE0DE
:102CB00044F400140AE044F4801401E044F44014A5
:102CC0006978814202D104F580146D1C6D1C28784E
:102CD000692865D006DC00288DD0632827D06428B9
:102CE00006D15DE06E2808D073282AD0752877D0E9
:102CF000DDE90D129047761CE0E0C4F30250022893
:102D000009D003280DD0D8F8001004280DD00E608B
:102D100008F10408D2E0D8F80010F217C1E9006207
:102D2000F6E7D8F800100E80F2E70E70F0E718F81A
:102D3000041B8DF8001000208DF80100EB460120E7
:102D400003E058F804BB4FF0FF3061074FF0000775
:102D500001D40AE07F1C57450DDA8742FADB1BF8E5
:102D600007100029F6D106E07F1C8742FCDB1BF828
:102D700007100029F8D1DDE90D23A9EB07008146F2
:102D8000214600F0B1F83044C61904E0DDE90D1227
:102D90001BF8010B90477F1EF8D22146484688E079
:102DA00058F8040BC4F302514FF00A0B032900D169
:102DB00000B2042900D140B2002802DA40422D219D
:102DC00002E0210505D52B218DF82410012104E016
:102DD00006E0E10710D02021F6E708AF089113E0E4
:102DE00058F8040BC4F302514FF00A0B032900D129
:102DF00080B2042900D1C0B20021EEE75946FDF7A8
:102E00008BFA303107F8011D0028F7D1ADEB070030
:102E100000F1200B600702D524F4803401E04FF06C
:102E2000010ADA4502DDAAEB0B0000E00020824631
:102E300000EB0B0108980144A9EB01000A90E003A4
:102E400006D4DDE90D2321460A9800F04DF806442A
:102E50004FF0000908E009A911F80900DDE90D1299
:102E6000904709F10109761C08998945F3DBE003D5
:102E70000CD5DDE90D2321460A9800F035F806440B
:102E800004E0DDE90D1230209047761CBAF1000114
:102E9000AAF1010AF5DC05E0DDE90D1217F8010BD6
:102EA0009047761CBBF10001ABF1010BF4DC0A98F2
:102EB0002146DDE90D2300F005F806446D1C97E678
:102EC000092801002DE9F041044600251E46174659
:102ED000880404D405E039462020B0476D1C641EE8
:102EE000F9D52846BDE8F0812DE9F04104460025DA
:102EF0001E469046C80301D5302700E020278804ED
:102F000004D505E041463846B0476D1C641EF9D52E
:102F10002846BDE8F0810A68531C0B6010707047AA
:102F200070B5124D044601224FF47F412846FEF74A
:102F3000AAF80F4E012204213046FEF7A4F8002221
:102F400004213046FEF79FF8210200222846FEF7B2
:102F50009AF8012204213046FEF795F83046BDE884
:102F6000704000220421FEF78EB8000000080048DF
:102F7000000C0048FEF79CF8FEF79AF8FFF75EFD9C
:102F8000FFF7D6FAFFF76CFAFFF764F90020FFF7B6
:102F9000C7FF0020FFF7B8F94FF6FF70FFF7C8F939
:102FA00017A10020FFF714F91BA11820FFF710F953
:102FB00019A13020FFF70CF917A14820FFF708F9F5
:102FC00015A16020FFF704F913A17820FFF700F99D
:102FD00011A19020FFF7FCF80FA1A820FFF7F8F847
:102FE0000DA1C020FFF7F4F80BA1D820FFF7F0F8EF
:102FF00000F03AF8FFF77AFA00F052F8FEE7000026
:10300000202020202020446562756767657220209B
:103010002020202000000000202020202020202030
:103020002020202020202020202020200000000020
:1030300010B50146EFF3058080B9EFF3108010B9A9
:10304000EFF3118018B107480068022806D0002469
:1030500011B1084600F092FE204610BD6FF0050445
:10306000FAE7000078000020EFF3058000280DD17A
:10307000EFF31081094A106811B9EFF3118109B11A
:10308000022803D028B14FF0FF3070476FF00500E1
:103090007047012010600020704700007800002079
:1030A00010B5EFF3058000280ED1EFF310810B4A25
:1030B000106811B9EFF3118109B1022804D0012879
:1030C00005D04FF0FF3010BD6FF0050010BD02209D
:1030D000106000F0C1FE002010BD0000780000204C
:1030E0002DE9F04385B00B464FF000070497EFF34E
:1030F000058100295AD1EFF3108111B9EFF3118145
:1031000019B12C490968022950D000284ED08024DA
:103110004FF0180C4FF000094FF0FF3152B3166812
:1031200006B1B146956905B1AC46ACF10105382D43
:1031300003D2157915F0010F03D005B00020BDE8CA
:10314000F083556905B1AC08D2F80880B8F1000FDA
:1031500007D0D6685C2E04D3166916B10DB10121D3
:1031600009E0B8F1000F06D1D56825B9156915B980
:10317000002100E00021012901D061B116E0916831
:10318000126901920291CDF800C02246494601F031
:103190001BFA04900AE004A90191A2B2CDF800C084
:1031A000494601F0DBF9012800D00497049805B0E6
:1031B000BDE8F083780000202DE9F04104460F4679
:1031C000134E75693068001D00F09EFCB4F1FF3F9E
:1031D00007D137B13068BDE8F041011D0D4800F05E
:1031E000E6BC2C4430684460AC4206D23068011D15
:1031F000B068BDE8F04100F0BFBC3068011D7068E8
:1032000000F0BAFC306B844200D23463BDE8F08138
:1032100028000020B80E002070B5044600F0D4FC51
:103220001C4D2869401C2861286810B1E86938B134
:103230000CE02C602869012808D100F093F905E022
:103240002868E16AC06A884200D82C60E86A401C9D
:10325000E8626064E06AA969884200D9A8610E4901
:1032600000EB800001EB8000211D00F0A0FC00F0CD
:10327000CBFCE86900280CD02868E16AC06A884263
:1032800007D206494FF080500860BFF34F8FBFF35D
:103290006F8F70BD28000020080A002004ED00E0B8
:1032A00038B500F091FC0F4CA068B8B90E4800F09A
:1032B00055FC0E4800F052FC0B4820601430606052
:1032C00000200B4B009003F1500210210A2000F067
:1032D000CBFEA06010B107A100F016FDBDE838409C
:1032E00000F092BC64000020CC0E0020E00E002014
:1032F000F40E0020546D72510000000070B50D4CAA
:10330000E068002815D00C4E00F05EFCF068C5683F
:10331000281D00F0F9FB2069401E2061E068401E76
:10332000E06000F071FC284600F051F8E0680028E9
:10333000EAD170BD28000020A40E00200B46026CCC
:10334000002A0CD0C1681144C160D0F808C06145A2
:1033500001D30168C160C1681846FCF7B9BF704766
:103360002DE9F041044616460027A56B226C002A81
:1033700010D0C6B1E068FCF7ABFFE168206C091A19
:10338000E1602268914202D2A168081AE060022E30
:1033900016D017E02068A8B9A06801F0BFF9074669
:1033A0000020A0600EE06068FCF792FF216C60686E
:1033B00008446060A168884204D32068606001E02E
:1033C00005B16D1E681CA0633846BDE8F08110B5DC
:1033D000044694F8591000290BD0012911D0022974
:1033E00014D0502080F31188BFF34F8FBFF36F8F3D
:1033F000FEE7206B00F01EFC2046BDE8104000F008
:1034000019BC2046BDE8104000F014BC10BD0000FF
:1034100007490A681168002904D00021016019B128
:10342000002070470121F9E7D0680068704700006C
:10343000640000204FF44061104810F0070F06D0E0
:10344000C01D20F007000D49411AC1F540610C4A2A
:103450001060002353600144083921F00701103A3D
:1034600011604B600B600B1A436001604068906014
:1034700050604FF00040D060704700009C16002064
:103480008C000020074E4FF08054074DFFF736FFA9
:1034900030680128FAD92C60BFF34F8FBFF36F8FCC
:1034A000F4E70000080A002004ED00E070B51D46B6
:1034B000049C002909D02260E06321640121204698
:1034C00000F00AFE84F84C5070BD2460F4E72DE94A
:1034D000F05F82460B9F0A9D0C9C0E4690469B46D1
:1034E0004FEA8801A522206BFCF704FF206BA8F1AE
:1034F000010100EB810020F007094FF0000866B1E0
:1035000000202218315C82F83410315C11B1401C6B
:103510001028F6D384F8438001E084F83480382DF5
:1035200000D33725E562E564C4F85080201D00F023
:1035300020FB04F1180000F01CFB2461C5F13800E9
:10354000A0616462C4F8548084F858805A46514699
:10355000484600F0C3FA2060002F00D03C60BDE870
:10356000F09F000070B500240F4D04EB840005EBC4
:10357000800000F0F3FA641C382CF6D30B4800F0FE
:10358000EDFA0B4800F0EAFA0A4800F0E7FA0A48B8
:1035900000F0E4FA094800F0E1FA09480349416003
:1035A0001431816070BD0000080A0020680E002000
:1035B0007C0E0020900E0020A40E0020B80E0020EB
:1035C0002800002010B4144900E011460A68824225
:1035D000FBD34B6803EB010C844503D140681844CE
:1035E000486008460C68D0F804C00CEB0003A34206
:1035F0000CD10A4B1B689A4206D052686244426062
:103600000A681268026002E0036000E00260814222
:1036100000D0086010BC70478C0000207C000020A7
:1036200010B5002441600061DFF838C091420BD82A
:10363000D11A8269914201D3012410E0011DDCF806
:10364000040000F099FA0AE09A4203D2994201D3A9
:10365000012404E0011DDCF8000000F08DFA204692
:1036600010BD00006400002010B5044600F0ACFA64
:10367000A06B20B1002400F0C7FA204610BD012441
:10368000F9E710B5044600F09FFAA06BE16B8842A1
:1036900001D1012400E0002400F0B6FA204610BD5C
:1036A000F8B505460E4617480068C068C468201D76
:1036B00000F02AFA94F8280010F0040F18D0A0693E
:1036C0002B46411932462046FFF7AAFFA0B1002041
:1036D0000346014600902A46204601F035F958B9C4
:1036E000502080F31188BFF34F8FBFF36F8FFEE739
:1036F00020F0010084F82800216A01B02046BDE8CE
:10370000F04008476400002030B587B0414D0022EA
:1037100002A9A86800F03EFE002875D00298002893
:1037200003DA039A0599049890470298002864DB0D
:10373000049C606910B1201D00F0E6F901A800F0BA
:10374000B3F8024602980A2857D2DFE800F00505D0
:10375000052F364D05052F3694F8280040F001005E
:1037600084F828000398A169034601442046FFF726
:1037700057FF002841D0216A2046884794F8280046
:1037800010F0040F39D0002000900398A1690023A5
:1037900042181946204601F0D7F870BB502080F33C
:1037A0001188BFF34F8FBFF36F8FFEE794F82800A7
:1037B00020F0010084F828001FE094F8280040F071
:1037C000010084F828000398A06128B181181346ED
:1037D0002046FFF725FF10E0502080F31188BFF34B
:1037E0004F8FBFF36F8FFEE794F8280010F0020FA1
:1037F0000CD020F0010084F82800002202A9A8685B
:1038000000F0C8FD002889D107B030BD204600F087
:1038100011FAF2E764000020F8B505460C4600F006
:1038200063FB684600F040F80646009810B100F0CF
:10383000F1FFF8BD44B9B54206D800F0EBFF3146C0
:103840002846FFF72DFFF8BD0C481CB141680968F8
:1038500091B10024A91B2246806800F069FA00F0AB
:10386000D9FF0028EFD106494FF080500860BFF320
:103870004F8FBFF36F8FF8BD0124EBE7640000208A
:1038800004ED00E0074948680068002805D0486852
:10389000C068C0684068086370474FF0FF30086335
:1038A000704700002800002070B5044600F0CAFEF2
:1038B0000546074E3069854204D200F00BF801201E
:1038C000206001E0002020603561284670BD0000C6
:1038D00064000020F8B51C4E30680068002826D02F
:1038E00000273068C0680568C468201D00F00CF926
:1038F000216A2046884794F8280010F0040F12D05F
:10390000A0692844A84206D960602461211D30685E
:1039100000F032F907E000232A46194620460097B6
:1039200001F012F840B1306800680028D9D1306841
:10393000716831607060F8BD502080F31188BFF36A
:103940004F8FBFF36F8FFEE7640000200A48406886
:10395000B0F1FF3F07D0502080F31188BFF34F8FA5
:10396000BFF36F8FFEE7502080F31188BFF34F8FB6
:10397000BFF36F8FFEE700009400002082B001A823
:10398000FFF746FD0199FFF747FFFFF7BDFEF6E79A
:1039900070B5044600F018F994F94550002D0CDD7F
:1039A000606A50B104F1240000F0F8FE08B100F0A4
:1039B00015FA681E45B2002DF2DC4FF0FF3684F890
:1039C000456000F021F900F0FFF894F94450002D13
:1039D0000CDD206950B104F1100000F0DFFE08B1E9
:1039E00000F0FCF9681E45B2002DF2DC84F844605A
:1039F000BDE8704000F008B92DE9F0410546002609
:103A000000F072FA334F386808B9FFF713FDF86811
:103A100005424ED19DB1083515F0070F0FD005F0C6
:103A20000700C0F10800054415F0070F07D050202B
:103A300080F31188BFF34F8FBFF36F8FFEE7002D28
:103A400037D07868854234D823490846046801E0B5
:103A5000214604466068A84202D220680028F7D1B7
:103A60003868844225D0086800F10806206808609C
:103A70006068411B10290FD9601910F0070F07D09B
:103A8000502080F31188BFF34F8FBFF36F8FFEE795
:103A900041606560FFF796FD61687868401A78605C
:103AA000BA68904200D2B860F868084360600020AD
:103AB000206000F0AFFE16F0070F07D0502080F313
:103AC0001188BFF34F8FBFF36F8FFEE73046BDE81D
:103AD000F08100007C0000208C000020001F4FF0CF
:103AE00080730360001F21F001010160001F054980
:103AF000016014380260001F6FF00201016020387D
:103B0000704700004D3900080169436882689A6077
:103B1000836842685A604A68824201D182684A607A
:103B2000002202610868401E0860086870470000B3
:103B3000034B036003F15C00086080201060704755
:103B4000E40F0020044B036003F15C0008604FF4B5
:103B500080701060704700004012002000F10801E2
:103B600041604FF0FF328260C1600161002101605D
:103B7000704700210161704710B4D1F800C0BCF15A
:103B8000FF3F02D000F1080202E0026904E01A4699
:103B900053681C686445FAD953684B6099608A6021
:103BA000516008610168491C016010BC704742689F
:103BB0004A6093688B6093685960916008610168FE
:103BC000491C016070470000502080F31188BFF34A
:103BD0004F8FBFF36F8F0A494868401C4860012827
:103BE0000CD10848006810F0FF0F07D0502080F378
:103BF0001188BFF34F8FBFF36F8FFEE77047000050
:103C00009400002004ED00E009494868002806D02F
:103C1000401E4860002801D180F311887047502071
:103C200080F31188BFF34F8FBFF36F8FFEE7000063
:103C30009400002070B5002827D0A0F10804134D8F
:103C40006068E968084207D1502080F31188BFF30B
:103C50004F8FBFF36F8FFEE722683AB1502080F399
:103C60001188BFF34F8FBFF36F8FFEE7884360600B
:103C700000F03AF960686968084468602046FFF718
:103C8000A1FCBDE8704000F0C5BD70BD7C00002007
:103C90004FF0E02000210161816105494FF47A7203
:103CA0000968B1FBF2F1491E4161072101617047CA
:103CB0001800002010B5FCF7F5FA114910280ED3B2
:103CC00000F1E02090F8F0030A78904207D25020EB
:103CD00080F31188BFF34F8FBFF36F8FFEE7094862
:103CE0000068896800F4E060884207D9502080F3BA
:103CF0001188BFF34F8FBFF36F8FFEE710BD000039
:103D0000940000200CED00E00022084B53F832C074
:103D1000BCF1000F03D0521C082AF7D3704743F8B8
:103D2000321003EBC201486070470000C809002050
:103D300070B504460D461646FFF746FF94F9440059
:103D4000B0F1FF3F4FF0000001D184F8440094F936
:103D50004510B1F1FF3F01D184F84500FFF754FF52
:103D6000A06B28B93246294604F1240000F056F829
:103D70002046BDE87040FFF70BBE000010B50246BC
:103D80000020002A12D00F48806B38B1502080F3F9
:103D90001188BFF34F8FBFF36F8FFEE700F0A4F8D9
:103DA00000211046FFF708FA00F034FD002807D183
:103DB00005494FF080500860BFF34F8FBFF36F8FFE
:103DC00010BD00002800002004ED00E002498A6ACE
:103DD00002604969416070472800002001490120C4
:103DE000486270472800002010B50C4600280BD010
:103DF000094A126802F11801FFF7BEFE2046BDE82D
:103E000010400121FFF7D8B9502080F31188BFF38B
:103E10004F8FBFF36F8FFEE72800002070B50D466F
:103E2000144600280DD00B4909681831FFF7BFFE72
:103E30000CB14FF0FF3521462846BDE87040FFF732
:103E4000BBB9502080F31188BFF34F8FBFF36F8F42
:103E5000FEE700002800002030B587B00025069559
:103E6000059504AA05A906A8FFF762FE069805991C
:103E7000019102900023009517A11948049A00F0BF
:103E8000A3FB184C606308B1012000E0002001286A
:103E900001D100F025FD01280AD0B0F1FF3F19D172
:103EA000502080F31188BFF34F8FBFF36F8FFEE771
:103EB000502080F31188BFF34F8FBFF36F8F4FF007
:103EC000FF3020630120E061656107B0BDE830404C
:103ED00000F048B807B030BD49444C450000000030
:103EE00085340008280000200248816B491C81634A
:103EF0007047000028000020184B986B002802D063
:103F0000012058627047002058629869144900EBFC
:103F1000800251F822203AB9C0B1401E00EB800265
:103F200051F82220002AF7D000EB800201EB820139
:103F30004A6852684A6001F1080C624501D1526832
:103F40004A604968C968196098617047502080F3D9
:103F50001188BFF34F8FBFF36F8FFEE7280000205B
:103F6000080A002000B583B038480168384A9142F9
:103F700007D1502080F31188BFF34F8FBFF36F8FAD
:103F8000FEE700683349884207D1502080F311884A
:103F9000BFF34F8FBFF36F8FFEE72F490878029072
:103FA000FF200870087801909DF804009DF8042017
:103FB00000F0F000904207D0502080F31188BFF34A
:103FC0004F8FBFF36F8FFEE79DF80400234B00F087
:103FD00050001870072098609DF8040010F0800FC2
:103FE0000BD09868401E98609DF804004000019036
:103FF0009DF8040010F0800FF3D19868032807D0D3
:10400000502080F31188BFF34F8FBFF36F8FFEE70F
:104010004FF440709860029808701148016841F4AC
:1040200070010160016841F070410160FFF730FEEE
:1040300000205860FCF7FEF80A48016841F0404152
:104040000160FCF7E3F803B0002000BD00ED00E0E4
:1040500071C20F4170C20F4100E400E094000020E3
:1040600020ED00E034EF00E038B5049D002804D0D6
:104070005BB102B189B1C2B120E0502080F3118858
:10408000BFF34F8FBFF36F8FFEE7502080F311888F
:10409000BFF34F8FBFF36F8FFEE7502080F311887F
:1040A000BFF34F8FBFF36F8FFEE739B1502080F31E
:1040B0001188BFF34F8FBFF36F8FFEE74FF0500CA7
:1040C000CDF800C01C46012384F846302B460094EE
:1040D000FFF7ECF9204638BD70B504460D46002CBC
:1040E00025D0FFF771FD226CE16B206801FB020017
:1040F000A0600020A06320686060E16B226C2068F3
:10410000491E01FB0200E0604FF0FF3084F84400DC
:1041100084F845009DB104F11000FFF71FFD04F184
:104120002400FFF71BFDFFF76FFD012070BD50203D
:1041300080F31188BFF34F8FBFF36F8FFEE72069C5
:104140000028F0D004F1100000F028FB0028EAD08D
:1041500004494FF080500860BFF34F8FBFF36F8F5B
:10416000E1E7000004ED00E02DE9FF4782B00446DE
:104170008A461F460025002C03D0BAF1000F08D054
:1041800011E0502080F31188BFF34F8FBFF36F8F82
:10419000FEE7206C38B1502080F31188BFF34F8FB9
:1041A000BFF36F8FFEE7022F0AD1E06B012807D023
:1041B000502080F31188BFF34F8FBFF36F8FFEE75E
:1041C00000F032FA48B9049838B1502080F31188D1
:1041D000BFF34F8FBFF36F8FFEE700264FF080587D
:1041E000DFF8F090FFF7F0FCA06BE16B884205D39D
:1041F000022F03D0049808B335B329E03A4651465C
:104200002046FFF7ADF8616A59B104F1240000F0CF
:10421000C5FA68B1C9F80080BFF34F8FBFF36F8F45
:1042200006E028B1C9F80080BFF34F8FBFF36F8F4E
:10423000FFF7EAFC06B00120BDE8F087FFF7E4FCD9
:1042400006B00020BDE8F0876846FFF7BFFD0125F6
:10425000FFF7DAFCFFF748FEFFF7B6FC94F94400DD
:10426000B0F1FF3F01D184F8446094F94500B0F10A
:10427000FF3F01D184F84560FFF7C6FC04A96846FA
:1042800000F02CF940B12046FFF782FB00F0C2FAA3
:1042900006B00020BDE8F0872046FFF7F2F990B1A4
:1042A00004F110000499FFF79FFD2046FFF770FB13
:1042B00000F0B0FA002895D1C9F80080BFF34F8F05
:1042C000BFF36F8F8EE72046FFF762FB00F0A2FA84
:1042D00088E7000004ED00E02DE9F0470446894638
:1042E00017461E46002C03D0B9F1000F08D011E08C
:1042F000502080F31188BFF34F8FBFF36F8FFEE71D
:10430000206C38B1502080F31188BFF34F8FBFF37A
:104310006F8FFEE7022E0AD1E06B012807D05020F4
:1043200080F31188BFF34F8FBFF36F8FFEE7FFF766
:10433000C1FC5020EFF3118880F31188BFF34F8F39
:10434000BFF36F8FA06BE16B884206D3022E04D0BF
:10435000002088F31188BDE8F08794F94550324673
:1043600049462046FEF7FCFFB5F1FF3F04D0681C2C
:1043700084F845000120ECE7606A0028FAD004F1D7
:10438000240000F00BFA0028F4D0002FF2D0012016
:104390003860EFE72DE9F74783B004468A460025E9
:1043A000002C03D0BAF1000F08D011E0502080F3A8
:1043B0001188BFF34F8FBFF36F8FFEE7206C38B1CA
:1043C000502080F31188BFF34F8FBFF36F8FFEE74C
:1043D00000F02AF948B9059838B1502080F31188C7
:1043E000BFF34F8FBFF36F8FFEE700274FF080586A
:1043F000DFF8E490FFF7E8FBA66BC6B15146204614
:10440000FEF79CFF701EA063206950B104F11000FC
:1044100000F0C4F928B1C9F80080BFF34F8FBFF393
:104420006F8FFFF7F1FB06B00120BDE8F08705981C
:1044300008B135B109E0FFF7E7FB06B00020BDE8A1
:10444000F0876846FFF7C2FC0125FFF7DDFBFFF7A9
:104450004BFDFFF7B9FB94F94400B0F1FF3F01D1E8
:1044600084F8447094F94500B0F1FF3F01D184F81D
:104470004570FFF7C9FB05A9684600F02FF868B141
:104480002046FFF785FA00F0C5F92046FFF7ECF863
:104490000028AFD006B00020BDE8F0872046FFF727
:1044A000E3F890B104F124000599FFF79DFC204644
:1044B000FFF76EFA00F0AEF900289BD1C9F8008032
:1044C000BFF34F8FBFF36F8F94E72046FFF760FA7B
:1044D00000F0A0F98EE7000004ED00E070B505469D
:1044E0000C46002D15D0E4B1FFF76EFBDFF868C075
:1044F000DCF814006B68C11A2268B2F1FF3F18D0D3
:104500002E68DCF828C0664515D0834213D80124F4
:104510001DE0502080F31188BFF34F8FBFF36F8FE2
:10452000FEE7502080F31188BFF34F8FBFF36F8FEA
:10453000FEE700240BE08A4206D9501A2060284684
:10454000FFF744FC002402E0002020600124FFF774
:104550005BFB204670BD0000280000202DE9F04FD5
:1045600085B081460F9F0E9E8A4690469B464FEA35
:104570008800FFF741FA054628000AD05C20FFF7C3
:104580003BFA04460CB1256304E02846FFF752FBD2
:1045900000E000249CB1002084F8590003905B46A1
:1045A000424651460197009602944846FEF78FFF17
:1045B0002046FEF731FE05B00120BDE8F08F05B0C2
:1045C0004FF0FF30BDE8F08F70B586B00646DDF8DD
:1045D00028C00C9C0B98002816D0ECB15C250495E3
:1045E0002063022084F85900002005AD0390CDF827
:1045F00000C0019502943046FEF769FF2046FEF7A1
:104600000BFE059806B070BD502080F31188BFF3F3
:104610004F8FBFF36F8FFEE7502080F31188BFF3F9
:104620004F8FBFF36F8FFEE70548C169002903D0A4
:10463000806B18B10020704701207047022070473E
:104640002800002001484069704700002800002031
:104650002DE9F04100262F4FB86B002808D0386AAA
:10466000401C3862786A00B101263046BDE8F0810E
:104670007869451C7D619DB97868006838B1502023
:1046800080F31188BFF34F8FBFF36F8FFEE7786819
:10469000B9687960B860B86A401CB862FFF7F2F890
:1046A000386BDFF8748085420DD37868006838B1C4
:1046B0007868C068C468606885420ED2386302E0DA
:1046C0004FF0FF3038633868C06A00EB800058F85C
:1046D00020000128C6D90126C4E7201DFFF714FADF
:1046E000A06A18B104F11800FFF70EFAE16AB86980
:1046F000814200D9B96101EB810008EB8000211DE6
:10470000FFF755FAE06A3968C96A8842CDD30126B5
:10471000CBE7000028000020080A002070B50446FE
:104720000021002833D01B4D2868844207D0502038
:1047300080F31188BFF34F8FBFF36F8FFEE7206DBB
:1047400038B1401E2065E36CE26A9A421FD040B146
:104750001DE0502080F31188BFF34F8FBFF36F8FA0
:10476000FEE7201DFFF7D0F9E06CE062C0F13800F1
:10477000A061E06AA969884200D9A861064900EBF6
:10478000800001EB8000211DFFF711FA012108468E
:1047900070BD000028000020080A002070B5C06825
:1047A000C468002C14D004F11800FFF7ADF9164DC1
:1047B000A86BA8B104F118011448FFF7F8F9E06AF2
:1047C0002968C96A88421CD901200121696270BD2B
:1047D000502080F31188BFF34F8FBFF36F8FFEE738
:1047E000201DFFF791F9E06AA969884200D9A86104
:1047F000074900EB800001EB8000211DFFF7D7F98E
:10480000DDE7002070BD000028000020900E002091
:10481000080A00202DE9F047002400272D4DA86B41
:10482000002807D0FFF7D0F9A86B401EA863A86B3B
:1048300040B149E0502080F31188BFF34F8FBFF3A0
:104840006F8FFEE7286900283ED0234E30684FF076
:10485000010800B3A6F59169F068C46804F1180076
:10486000FFF752F9201DFFF74FF9E06AA969884266
:1048700000D9A86100EB800009EB8000211DFFF743
:1048800096F9E06A2968C96A884201D3C5F824808C
:1048900030680028E0D10CB1FEF7F4FF2C6A4CB16F
:1048A000FFF7D6FE08B1C5F82480641E002CF7D1AE
:1048B00000202862686A38B1012708493807086073
:1048C000BFF34F8FBFF36F8FFFF79EF93846BDE8F8
:1048D000F087000028000020900E002004ED00E08A
:1048E00030B587B00024FEF7DBFC134DA868B0B1EB
:1048F00000200690059004AA05A906A8FFF722F952
:1049000005990698022200920191029000230BA1C2
:104910000C48049AFFF758FEE86000B1012414B176
:1049200007B0204630BD502080F31188BFF34F8F71
:10493000BFF36F8FFEE7000064000020546D72200B
:10494000537663007D390008F0B585B084460A9D32
:1049500016461F460022BCF1000F14D0164CA0686A
:1049600000B300910196CDF808C006291BDAFFF7C5
:104970005BFE02280FD000231A466946A068FFF7A5
:10498000F3FB024615E0502080F31188BFF34F8FF0
:10499000BFF36F8FFEE700232A466946A068FFF742
:1049A000E3FB024605E000233A466946FFF794FC24
:1049B000024605B01046F0BD640000200000000073
:1049C00000000000000000000000000000000000E7
:1049D00000000000000000000000000000000000D7
:1049E0000000000000000000000000000000800146
:1049F00080018001800180018001800180018001AF
:104A000080018001800180010000000080018001A0
:104A10000000000000000000000000000000000096
:104A2000CC00CC00CC00CC00CC00CC0000000000BE
:104A30000000000000000000000000000000000076
:104A40000000000000000000000000000000000066
:104A50000000000000000000600C600C600C3006DC
:104A60003006FE1FFE1F300638071803FE1FFE1F0C
:104A7000180318038C018C018C01000000008000D9
:104A8000E003F80F9C0E8C1C8C188C009800F80129
:104A9000E007800E801C8C188C189C18B80CF00F46
:104AA000E003800080000000000000000000000023
:104AB00000000E181B0C110C110611061103110336
:104AC0009B018E01C038C06C604460443044304467
:104AD0001844186C0C380000000000000000E001D1
:104AE000F0033807180618063003F001F000F8004C
:104AF0009C310E33061E061C061C063FFC73F0217B
:104B000000000000000000000000000000000000A5
:104B10000C000C000C000C000C000C00000000004D
:104B20000000000000000000000000000000000085
:104B30000000000000000000000000000000000273
:104B400000038001C000C000600060003000300041
:104B50003000300030003000300030006000600075
:104B6000C000C0008001000300020000000020001F
:104B70006000C00080018001000300030006000601
:104B800000060006000600060006000600030003FB
:104B900080018001C00060002000000000000000D3
:104BA0000000000000000000C000C000D806F807A8
:104BB000E0013003380700000000000000000000A2
:104BC00000000000000000000000000000000000E5
:104BD00000000000000000008001800180018001D1
:104BE0008001FC3FFC3F8001800180018001800149
:104BF00000000000000000000000000000000000B5
:104C000000000000000000000000000000000000A4
:104C10000000000000000000000000000000800113
:104C20008001000100018000000000000000000081
:104C30000000000000000000000000000000000074
:104C400000000000E007E007000000000000000096
:104C50000000000000000000000000000000000054
:104C60000000000000000000000000000000000044
:104C70000000000000000000000000000000C00074
:104C8000C000000000000000000000000000000C58
:104C9000000C00060006000600030003000380036A
:104CA000800180018001C000C000C0006000600081
:104CB0000000000000000000000000000000E00311
:104CC000F007380E180C0C180C180C180C180C18CF
:104CD0000C180C180C180C18180C380EF007E00300
:104CE00000000000000000000000000000000001C3
:104CF0008001C001F00198018801800180018001DC
:104D0000800180018001800180018001800180019B
:104D10000000000000000000000000000000E003B0
:104D2000F80F180C0C180C1800180018000C0006CE
:104D300000038001C000600030001800FC1FFC1F51
:104D40000000000000000000000000000000E00182
:104D5000F807180E0C0C0C0C000C0006C003C00762
:104D6000000C001800180C180C18180CF807E003B9
:104D70000000000000000000000000000000000C27
:104D8000000E000F000F800DC00C600C600C300C8A
:104D9000180C0C0CFC3FFC3F000C000C000C000C31
:104DA0000000000000000000000000000000F80FFC
:104DB000F80F180018000C00EC03FC071C0E001C78
:104DC0000018001800180C181C0C180EF807E00347
:104DD0000000000000000000000000000000C0070C
:104DE000F00F381C181818000C00CC03EC0F3C0E08
:104DF0001C1C0C180C180C18181C380EF007E003BB
:104E00000000000000000000000000000000FC1F87
:104E1000FC1F000C00060006000380038001C00197
:104E2000C000E00060006000700030003000300022
:104E30000000000000000000000000000000E0038F
:104E4000F007380E180C180C180C3806F007F0078D
:104E5000180C0C180C180C180C18380CF80FE00370
:104E60000000000000000000000000000000E0035F
:104E7000F007380E1C0C0C180C180C181C1C381ED3
:104E8000F81BE0190018000C000C1C0EF807F001CC
:104E90000000000000000000000000000000000012
:104EA0000000000000000000800180010000000000
:104EB00000000000000000000000000080018001F0
:104EC00000000000000000000000000000000000E2
:104ED00000000000000000008001800100000000D0
:104EE00000000000000000000000000080018001C0
:104EF0000001000180000000000000000000000030
:104F00000000000000000000000000000010001C75
:104F1000800FE003F8001800F800E003800F001C89
:104F20000010000000000000000000000000000071
:104F3000000000000000000000000000F81F00005A
:104F400000000000F81F000000000000000000004A
:104F50000000000000000000000000000000000051
:104F60000000000000000000000000000800380001
:104F7000F001C007001F0018001FC007F001380033
:104F80000800000000000000000000000000E00336
:104F9000F80F180C0C180C180018000C0006000371
:104FA0008001C000C000C00000000000C000C000C0
:104FB00000000000000000000000000000000000F1
:104FC000E00718180420C229224A11440944094460
:104FD000094409221113E20C024004201818E007CA
:104FE000000000000000000000000000000080033E
:104FF0008003C006C006C006600C600C3018301874
:105000003018F83FF83F1C700C600C6006C006C0FA
:105010000000000000000000000000000000FC0391
:10502000FC0F0C0C0C180C180C180C0CFC07FC0FCB
:105030000C180C300C300C300C300C18FC1FFC071A
:105040000000000000000000000000000000C00799
:10505000F01F38381C300C70066006000600060091
:1050600006000600060006600C701C30F01FE0070A
:105070000000000000000000000000000000FE032F
:10508000FE0F060E061806180630063006300630EB
:1050900006300630063006180618060EFE0FFE0310
:1050A0000000000000000000000000000000FC3FC5
:1050B000FC3F0C000C000C000C000C00FC1FFC1F43
:1050C0000C000C000C000C000C000C00FC3FFC3F22
:1050D0000000000000000000000000000000F83F99
:1050E000F83F18001800180018001800F81FF81FE3
:1050F00018001800180018001800180018001800F0
:105100000000000000000000000000000000E00FB0
:10511000F83F3C780E6006E007C00300030003FE82
:1051200003FE03C007C006C00EC03CF0F83FE00F0E
:1051300000000000000000000000000000000C3033
:105140000C300C300C300C300C300C30FC3FFC3F81
:105150000C300C300C300C300C300C300C300C306F
:1051600000000000000000000000000000008001BE
:105170008001800180018001800180018001800127
:105180008001800180018001800180018001800117
:105190000000000000000000000000000000000609
:1051A00000060006000600060006000600060006CF
:1051B000000600060006180618063807F003E0018E
:1051C00000000000000000000000000000000630A9
:1051D0000618060C060606038601C6006600760061
:1051E000DE008E0106030606060C06180630066071
:1051F0000000000000000000000000000000180097
:1052000018001800180018001800180018001800DE
:10521000180018001800180018001800F81FF81FD0
:1052200000000000000000000000000000000EE090
:105230001EF01EF01EF036D836D836D836D866CCDA
:1052400066CC66CCC6C6C6C6C6C6C6C686C386C338
:1052500000000000000000000000000000000C3012
:105260001C303C303C306C306C30CC30CC308C312D
:105270000C330C330C360C360C3C0C3C0C380C301C
:105280000000000000000000000000000000E00737
:10529000F81F1C380E70066003C003C003C003C0B3
:1052A00003C003C003C006600E701C38F81FE0077F
:1052B0000000000000000000000000000000FC0FE3
:1052C000FC1F0C380C300C300C300C300C18FC1F50
:1052D000FC070C000C000C000C000C000C000C0077
:1052E0000000000000000000000000000000E007D7
:1052F000F81F1C380E70066003E003C003C003C033
:1053000003C003C007E006630E3F1C3CF83FE0F714
:1053100000C0000000000000000000000000FE0FC0
:10532000FE1F06380630063006300638FE1FFE0720
:1053300006030606060C0618061806300630066038
:105340000000000000000000000000000000E0037A
:10535000F80F1C0C0C180C180C001C00F803E00FC4
:10536000001E0038063006300E301C1CF80FE00717
:105370000000000000000000000000000000FE7FB0
:10538000FE7F800180018001800180018001800119
:105390008001800180018001800180018001800105
:1053A00000000000000000000000000000000C30C1
:1053B0000C300C300C300C300C300C300C300C300D
:1053C0000C300C300C300C300C301818F81FE00783
:1053D000000000000000000000000000000003606A
:1053E0000630063006300C180C180C18180C180C67
:1053F000380E30063006700760036003C001C0013C
:105400000000000000000000000000000000036039
:10541000C361C361C3616633663366336633663323
:1054200066336C1B6C1B6C1B2C1A3C1E380E380E22
:1054300000000000000000000000000000000FE07D
:105440000C7018303018700C600EC0078003800399
:10545000C003E006700C301C18180C300E6007E01A
:10546000000000000000000000000000000003C079
:1054700006600C301C383818300C6006E007C0039A
:105480008001800180018001800180018001800114
:105490000000000000000000000000000000FC7F91
:1054A000FC7F006000300018000C00060003800143
:1054B000C0006000300018000C000600FE7FFE7F78
:1054C0000000000000000000000000000000E003F9
:1054D000E003600060006000600060006000600049
:1054E00060006000600060006000600060006000BC
:1054F000600060006000E003E00300000000300096
:105500003000600060006000C000C000C000C0014A
:1055100080018001800100030003000300060006F3
:105520000000000000000000000000000000E00398
:10553000E003000300030003000300030003000373
:105540000003000300030003000300030003000343
:10555000000300030003E003E0030000000000007C
:10556000C001C00160036003600330063006180C00
:10557000180C000000000000000000000000000007
:10558000000000000000000000000000000000001B
:10559000000000000000000000000000000000000B
:1055A0000000000000000000000000000000FFFFFD
:1055B000FFFF0000000000000000000000000C00E1
:1055C0000C000C000C000C000C000000000000009F
:1055D00000000000000000000000000000000000CB
:1055E00000000000000000000000000000000000BB
:1055F0000000000000000000F003F8071C0C0C0C79
:10560000000FF00FF80C0C0C0C0C1C0FF80FF0181E
:105610000000000000000000000000000000180072
:105620001800180018001800D803F80F380C1818C4
:1056300018181818181818181818380CF80FD80354
:10564000000000000000000000000000000000005A
:105650000000000000000000C003F007300E180C2E
:105660001800180018001800180C300EF007C003BE
:105670000000000000000000000000000000001812
:105680000018001800180018C01BF01F301C181854
:1056900018181818181818181818301CF01FC01BE4
:1056A00000000000000000000000000000000000FA
:1056B0000000000000000000C003F00F300C1818BC
:1056C000F81FF81F180018003818301CF00FC0071A
:1056D0000000000000000000000000000000800F3B
:1056E000C00FC000C000C000F007F007C000C0003D
:1056F000C000C000C000C000C000C000C000C000AA
:105700000000000000000000000000000000000099
:105710000000000000000000E00DF80F180E0C0C57
:105720000C0C0C0C0C0C0C0C0C0C180EF80FE00DE7
:10573000000C0C0C1C06F807F0010000000018001B
:105740001800180018001800D807F80F381C18188F
:1057500018181818181818181818181818181818C9
:105760000000000000000000000000000000C00079
:10577000C000000000000000C000C000C000C00069
:10578000C000C000C000C000C000C000C000C00019
:105790000000000000000000000000000000C00049
:1057A000C000000000000000C000C000C000C00039
:1057B000C000C000C000C000C000C000C000C000E9
:1057C000C000C000C000F8007800000000000C001D
:1057D0000C000C000C000C000C0C0C060C038C01D3
:1057E000CC006C00FC009C018C030C030C060C0C20
:1057F0000000000000000000000000000000C000E9
:10580000C000C000C000C000C000C000C000C00098
:10581000C000C000C000C000C000C000C000C00088
:105820000000000000000000000000000000000078
:1058300000000000000000007C3CFF7EC7E383C145
:1058400083C183C183C183C183C183C183C183C138
:105850000000000000000000000000000000000048
:1058600000000000000000009807F80F381C18180E
:1058700018181818181818181818181818181818A8
:105880000000000000000000000000000000000018
:105890000000000000000000C003F00F300C1818DA
:1058A00018181818181818181818300CF00FC0030A
:1058B00000000000000000000000000000000000E8
:1058C0000000000000000000D803F80F380C181882
:1058D00018181818181818181818380CF80FD803B2
:1058E0001800180018001800180000000000000040
:1058F0000000000000000000C01BF01F301C181842
:1059000018181818181818181818301CF01FC01B71
:10591000001800180018001800180000000000000F
:105920000000000000000000B007F003700030002D
:1059300030003000300030003000300030003000E7
:105940000000000000000000000000000000000057
:105950000000000000000000E003F003380E180C07
:105960003800F003C007000C180C380EF007E003F5
:105970000000000000000000000000000000000027
:105980008000C000C000C000F007F007C000C000E9
:10599000C000C000C000C000C000C000C007800739
:1059A00000000000000000000000000000000000F7
:1059B0000000000000000000181818181818181827
:1059C00018181818181818181818381CF01FE0198B
:1059D00000000000000000000000000000000000C7
:1059E00000000000000000000C18180C180C180C27
:1059F000300630063006600360036003C001C0015A
:105A00000000000000000000000000000000000096
:105A10000000000000000000C141C141C361636398
:105A2000636363633636363636361C1C1C1C1C1CFE
:105A30000000000000000000000000000000000066
:105A400000000000000000001C38381C300C60060C
:105A500060036003600360036006300C381C1C3870
:105A60000000000000000000000000000000000036
:105A700000000000000000001830301830187018C6
:105A8000600C600CE00CC006C0068003800380033D
:105A900080018001C001F0007000000000000000E3
:105AA0000000000000000000FC1FFC1F000C0006AE
:105AB00000038001C000600030001800FC1FFC1FC4
:105AC00000000000000000000000000000000003D3
:105AD0008001C000C000C000C000C000C000600065
